{"src/SureWorkEscrow.sol":{"SureWorkEscrow":{"abi":[{"inputs":[{"internalType":"address","name":"_feeCollector","type":"address"}],"stateMutability":"nonpayable","type":"constructor"},{"inputs":[],"name":"AccessControlBadConfirmation","type":"error"},{"inputs":[{"internalType":"address","name":"account","type":"address"},{"internalType":"bytes32","name":"neededRole","type":"bytes32"}],"name":"AccessControlUnauthorizedAccount","type":"error"},{"inputs":[],"name":"ReentrancyGuardReentrantCall","type":"error"},{"inputs":[{"internalType":"address","name":"token","type":"address"}],"name":"SafeERC20FailedOperation","type":"error"},{"anonymous":false,"inputs":[{"indexed":true,"internalType":"uint256","name":"gigId","type":"uint256"},{"indexed":false,"internalType":"address","name":"winner","type":"address"},{"indexed":false,"internalType":"uint256","name":"amount","type":"uint256"}],"name":"DisputeResolved","type":"event"},{"anonymous":false,"inputs":[{"indexed":true,"internalType":"uint256","name":"gigId","type":"uint256"}],"name":"GigCancelled","type":"event"},{"anonymous":false,"inputs":[{"indexed":true,"internalType":"uint256","name":"gigId","type":"uint256"},{"indexed":false,"internalType":"uint256","name":"amountPaid","type":"uint256"},{"indexed":false,"internalType":"uint256","name":"fee","type":"uint256"}],"name":"GigCompleted","type":"event"},{"anonymous":false,"inputs":[{"indexed":true,"internalType":"uint256","name":"gigId","type":"uint256"},{"indexed":true,"internalType":"address","name":"client","type":"address"},{"indexed":true,"internalType":"address","name":"freelancer","type":"address"},{"indexed":false,"internalType":"uint256","name":"amount","type":"uint256"},{"indexed":false,"internalType":"address","name":"paymentToken","type":"address"}],"name":"GigCreated","type":"event"},{"anonymous":false,"inputs":[{"indexed":true,"internalType":"uint256","name":"gigId","type":"uint256"},{"indexed":true,"internalType":"address","name":"initiator","type":"address"}],"name":"GigDisputed","type":"event"},{"anonymous":false,"inputs":[{"indexed":true,"internalType":"uint256","name":"gigId","type":"uint256"},{"indexed":false,"internalType":"uint256","name":"amount","type":"uint256"}],"name":"GigFunded","type":"event"},{"anonymous":false,"inputs":[{"indexed":false,"internalType":"uint256","name":"newFeePercent","type":"uint256"}],"name":"PlatformFeeUpdated","type":"event"},{"anonymous":false,"inputs":[{"indexed":true,"internalType":"bytes32","name":"role","type":"bytes32"},{"indexed":true,"internalType":"bytes32","name":"previousAdminRole","type":"bytes32"},{"indexed":true,"internalType":"bytes32","name":"newAdminRole","type":"bytes32"}],"name":"RoleAdminChanged","type":"event"},{"anonymous":false,"inputs":[{"indexed":true,"internalType":"bytes32","name":"role","type":"bytes32"},{"indexed":true,"internalType":"address","name":"account","type":"address"},{"indexed":true,"internalType":"address","name":"sender","type":"address"}],"name":"RoleGranted","type":"event"},{"anonymous":false,"inputs":[{"indexed":true,"internalType":"bytes32","name":"role","type":"bytes32"},{"indexed":true,"internalType":"address","name":"account","type":"address"},{"indexed":true,"internalType":"address","name":"sender","type":"address"}],"name":"RoleRevoked","type":"event"},{"anonymous":false,"inputs":[{"indexed":true,"internalType":"uint256","name":"gigId","type":"uint256"},{"indexed":true,"internalType":"address","name":"freelancer","type":"address"}],"name":"WorkSubmitted","type":"event"},{"inputs":[],"name":"ADMIN_ROLE","outputs":[{"internalType":"bytes32","name":"","type":"bytes32"}],"stateMutability":"view","type":"function"},{"inputs":[],"name":"ARBITER_ROLE","outputs":[{"internalType":"bytes32","name":"","type":"bytes32"}],"stateMutability":"view","type":"function"},{"inputs":[],"name":"DEFAULT_ADMIN_ROLE","outputs":[{"internalType":"bytes32","name":"","type":"bytes32"}],"stateMutability":"view","type":"function"},{"inputs":[{"internalType":"uint256","name":"_gigId","type":"uint256"}],"name":"approveWork","outputs":[],"stateMutability":"nonpayable","type":"function"},{"inputs":[{"internalType":"uint256","name":"_gigId","type":"uint256"}],"name":"cancelGig","outputs":[],"stateMutability":"nonpayable","type":"function"},{"inputs":[{"internalType":"address","name":"","type":"address"},{"internalType":"uint256","name":"","type":"uint256"}],"name":"clientGigs","outputs":[{"internalType":"uint256","name":"","type":"uint256"}],"stateMutability":"view","type":"function"},{"inputs":[{"internalType":"address","name":"_freelancer","type":"address"},{"internalType":"address","name":"_paymentToken","type":"address"},{"internalType":"uint256","name":"_amount","type":"uint256"},{"internalType":"uint256","name":"_deadline","type":"uint256"},{"internalType":"string","name":"_metadataURI","type":"string"}],"name":"createGig","outputs":[{"internalType":"uint256","name":"","type":"uint256"}],"stateMutability":"nonpayable","type":"function"},{"inputs":[],"name":"feeCollector","outputs":[{"internalType":"address","name":"","type":"address"}],"stateMutability":"view","type":"function"},{"inputs":[{"internalType":"address","name":"","type":"address"},{"internalType":"uint256","name":"","type":"uint256"}],"name":"freelancerGigs","outputs":[{"internalType":"uint256","name":"","type":"uint256"}],"stateMutability":"view","type":"function"},{"inputs":[{"internalType":"uint256","name":"_gigId","type":"uint256"}],"name":"fundGig","outputs":[],"stateMutability":"nonpayable","type":"function"},{"inputs":[{"internalType":"address","name":"_client","type":"address"}],"name":"getClientGigs","outputs":[{"internalType":"uint256[]","name":"","type":"uint256[]"}],"stateMutability":"view","type":"function"},{"inputs":[{"internalType":"address","name":"_freelancer","type":"address"}],"name":"getFreelancerGigs","outputs":[{"internalType":"uint256[]","name":"","type":"uint256[]"}],"stateMutability":"view","type":"function"},{"inputs":[{"internalType":"uint256","name":"_gigId","type":"uint256"}],"name":"getGig","outputs":[{"components":[{"internalType":"uint256","name":"gigId","type":"uint256"},{"internalType":"address","name":"client","type":"address"},{"internalType":"address","name":"freelancer","type":"address"},{"internalType":"address","name":"paymentToken","type":"address"},{"internalType":"uint256","name":"amount","type":"uint256"},{"internalType":"uint256","name":"deadline","type":"uint256"},{"internalType":"enum SureWorkEscrow.GigStatus","name":"status","type":"uint8"},{"internalType":"string","name":"metadataURI","type":"string"},{"internalType":"uint256","name":"createdAt","type":"uint256"},{"internalType":"uint256","name":"fundedAt","type":"uint256"},{"internalType":"uint256","name":"completedAt","type":"uint256"}],"internalType":"struct SureWorkEscrow.Gig","name":"","type":"tuple"}],"stateMutability":"view","type":"function"},{"inputs":[{"internalType":"bytes32","name":"role","type":"bytes32"}],"name":"getRoleAdmin","outputs":[{"internalType":"bytes32","name":"","type":"bytes32"}],"stateMutability":"view","type":"function"},{"inputs":[{"internalType":"uint256","name":"","type":"uint256"}],"name":"gigs","outputs":[{"internalType":"uint256","name":"gigId","type":"uint256"},{"internalType":"address","name":"client","type":"address"},{"internalType":"address","name":"freelancer","type":"address"},{"internalType":"address","name":"paymentToken","type":"address"},{"internalType":"uint256","name":"amount","type":"uint256"},{"internalType":"uint256","name":"deadline","type":"uint256"},{"internalType":"enum SureWorkEscrow.GigStatus","name":"status","type":"uint8"},{"internalType":"string","name":"metadataURI","type":"string"},{"internalType":"uint256","name":"createdAt","type":"uint256"},{"internalType":"uint256","name":"fundedAt","type":"uint256"},{"internalType":"uint256","name":"completedAt","type":"uint256"}],"stateMutability":"view","type":"function"},{"inputs":[{"internalType":"bytes32","name":"role","type":"bytes32"},{"internalType":"address","name":"account","type":"address"}],"name":"grantRole","outputs":[],"stateMutability":"nonpayable","type":"function"},{"inputs":[{"internalType":"bytes32","name":"role","type":"bytes32"},{"internalType":"address","name":"account","type":"address"}],"name":"hasRole","outputs":[{"internalType":"bool","name":"","type":"bool"}],"stateMutability":"view","type":"function"},{"inputs":[],"name":"platformFeePercent","outputs":[{"internalType":"uint256","name":"","type":"uint256"}],"stateMutability":"view","type":"function"},{"inputs":[{"internalType":"uint256","name":"_gigId","type":"uint256"}],"name":"raiseDispute","outputs":[],"stateMutability":"nonpayable","type":"function"},{"inputs":[{"internalType":"bytes32","name":"role","type":"bytes32"},{"internalType":"address","name":"callerConfirmation","type":"address"}],"name":"renounceRole","outputs":[],"stateMutability":"nonpayable","type":"function"},{"inputs":[{"internalType":"uint256","name":"_gigId","type":"uint256"},{"internalType":"address","name":"_winner","type":"address"}],"name":"resolveDispute","outputs":[],"stateMutability":"nonpayable","type":"function"},{"inputs":[{"internalType":"bytes32","name":"role","type":"bytes32"},{"internalType":"address","name":"account","type":"address"}],"name":"revokeRole","outputs":[],"stateMutability":"nonpayable","type":"function"},{"inputs":[{"internalType":"address","name":"_newFeeCollector","type":"address"}],"name":"setFeeCollector","outputs":[],"stateMutability":"nonpayable","type":"function"},{"inputs":[{"internalType":"uint256","name":"_newFeePercent","type":"uint256"}],"name":"setPlatformFee","outputs":[],"stateMutability":"nonpayable","type":"function"},{"inputs":[{"internalType":"uint256","name":"_gigId","type":"uint256"}],"name":"submitWork","outputs":[],"stateMutability":"nonpayable","type":"function"},{"inputs":[{"internalType":"bytes4","name":"interfaceId","type":"bytes4"}],"name":"supportsInterface","outputs":[{"internalType":"bool","name":"","type":"bool"}],"stateMutability":"view","type":"function"},{"inputs":[],"name":"totalFeesCollected","outputs":[{"internalType":"uint256","name":"","type":"uint256"}],"stateMutability":"view","type":"function"}],"evm":{"bytecode":{"linkReferences":{},"object":"608060405260fa6005553480156200001657600080fd5b50604051620022af380380620022af8339810160408190526200003991620001f1565b60017f9b779b17422d0df92223018b32b4d1fa46e071723d6817e2486d003becc55f00556001600160a01b038116620000b85760405162461bcd60e51b815260206004820152601560248201527f496e76616c69642066656520636f6c6c6563746f720000000000000000000000604482015260640160405180910390fd5b600680546001600160a01b0319166001600160a01b038316179055620000e060003362000142565b506200010d7fa49807205ce4d355092ef5a8a18f56e8913cf4a201fbe287825b095693c217753362000142565b506200013a7fbb08418a67729a078f87bbc8d02a770929bb68f5bfdf134ae2ead6ed38e2f4ae3362000142565b505062000223565b6000828152602081815260408083206001600160a01b038516845290915281205460ff16620001e7576000838152602081815260408083206001600160a01b03861684529091529020805460ff191660011790556200019e3390565b6001600160a01b0316826001600160a01b0316847f2f8788117e7eff1d82e926ec794901d17c78024a50270940304540a733656f0d60405160405180910390a4506001620001eb565b5060005b92915050565b6000602082840312156200020457600080fd5b81516001600160a01b03811681146200021c57600080fd5b9392505050565b61207c80620002336000396000f3fe608060405234801561001057600080fd5b50600436106101a95760003560e01c8063668c6cbb116100f9578063a42dce8011610097578063c415b95c11610071578063c415b95c146103d2578063c4c11523146103fd578063d547741f14610410578063fac210e91461042357600080fd5b8063a42dce801461038c578063a5c1674e1461039f578063b3479ed4146103b257600080fd5b80638de8616f116100d35780638de8616f1461034b57806391d148541461035e57806396e7dfe614610371578063a217fddf1461038457600080fd5b8063668c6cbb1461030857806375b238fc1461031b5780638c639a851461034257600080fd5b806336568abe116101665780634bca9a88116101405780634bca9a881461029b5780634d104adf146102ae5780635e3fbdc8146102d557806360c6d8ae146102ff57600080fd5b806336568abe146102555780633d01e0fa1461026857806340a7ea081461027b57600080fd5b806301ffc9a7146101ae57806303f8ed9f146101d65780630e33599d146101f757806312e8e2c31461020c578063248a9ca31461021f5780632f2ff15d14610242575b600080fd5b6101c16101bc366004611a38565b610436565b60405190151581526020015b60405180910390f35b6101e96101e4366004611a9b565b61046d565b6040519081526020016101cd565b61020a610205366004611b81565b610799565b005b61020a61021a366004611bad565b61099d565b6101e961022d366004611bad565b60009081526020819052604090206001015490565b61020a610250366004611b81565b610a4d565b61020a610263366004611b81565b610a78565b61020a610276366004611bad565b610aab565b61028e610289366004611bc6565b610bf7565b6040516101cd9190611be1565b61020a6102a9366004611bad565b610c63565b6101e97fbb08418a67729a078f87bbc8d02a770929bb68f5bfdf134ae2ead6ed38e2f4ae81565b6102e86102e3366004611bad565b610d8d565b6040516101cd9b9a99989796959493929190611ca3565b6101e960075481565b61028e610316366004611bc6565b610e80565b6101e97fa49807205ce4d355092ef5a8a18f56e8913cf4a201fbe287825b095693c2177581565b6101e960055481565b61020a610359366004611bad565b610eea565b6101c161036c366004611b81565b611118565b6101e961037f366004611d1e565b611141565b6101e9600081565b61020a61039a366004611bc6565b611172565b61020a6103ad366004611bad565b611207565b6103c56103c0366004611bad565b611365565b6040516101cd9190611d48565b6006546103e5906001600160a01b031681565b6040516001600160a01b0390911681526020016101cd565b61020a61040b366004611bad565b611513565b61020a61041e366004611b81565b611637565b6101e9610431366004611d1e565b61165c565b60006001600160e01b03198216637965db0b60e01b148061046757506301ffc9a760e01b6001600160e01b03198316145b92915050565b60006001600160a01b0386166104ca5760405162461bcd60e51b815260206004820152601a60248201527f496e76616c696420667265656c616e636572206164647265737300000000000060448201526064015b60405180910390fd5b336001600160a01b038716036105225760405162461bcd60e51b815260206004820152601b60248201527f436c69656e742063616e6e6f7420626520667265656c616e636572000000000060448201526064016104c1565b600084116105725760405162461bcd60e51b815260206004820152601d60248201527f416d6f756e74206d7573742062652067726561746572207468616e203000000060448201526064016104c1565b4283116105c15760405162461bcd60e51b815260206004820152601a60248201527f446561646c696e65206d75737420626520696e2066757475726500000000000060448201526064016104c1565b600180549060006105d183611e21565b90915550506001805460408051610160810182528281523360208083019182526001600160a01b038c81168486019081528c821660608601908152608086018d815260a087018d8152600060c0890181815260e08a018f9052426101008b01526101208a018290526101408a018290528b8252600297889052999020885181559651878c0180549187166001600160a01b03199283161790559351958701805496861696851696909617909555905160038601805491909416921691909117909155516004830155516005820155915160068084018054959693959293909260ff19169184908111156106c6576106c6611c25565b021790555060e082015160078201906106df9082611ec2565b506101008201516008820155610120820151600982015561014090910151600a90910155336000818152600360209081526040808320805460018082018355918552838520018690556001600160a01b038c8116808652600485528386208054938401815586529484902090910186905581518a8152908b169281019290925291929184917f427cc4fb6990c075c47725f01464f04840979d5f5a2fda9eed33b7475a12a23e910160405180910390a49695505050505050565b7fbb08418a67729a078f87bbc8d02a770929bb68f5bfdf134ae2ead6ed38e2f4ae6107c381611678565b6107cb611682565b600083815260026020526040812080549091036107fa5760405162461bcd60e51b81526004016104c190611f82565b600460068083015460ff169081111561081557610815611c25565b146108555760405162461bcd60e51b815260206004820152601060248201526f11da59c81b9bdd08191a5cdc1d5d195960821b60448201526064016104c1565b60018101546001600160a01b0384811691161480610882575060028101546001600160a01b038481169116145b6108bf5760405162461bcd60e51b815260206004820152600e60248201526d24b73b30b634b2103bb4b73732b960911b60448201526064016104c1565b600381015460028201546001600160a01b0391821691908116908516036109035760068201805460ff1916600317905542600a8301556108fe8561169e565b610935565b6006828101805460ff1916909117905560018201546004830154610935916001600160a01b0384811692911690611789565b6004820154604080516001600160a01b0387168152602081019290925286917fdf0baf5489595ea17a097d16827d60793e2f57f3b85a982e5d7e02838b841ee6910160405180910390a25050610998600160008051602061202783398151915255565b505050565b7fa49807205ce4d355092ef5a8a18f56e8913cf4a201fbe287825b095693c217756109c781611678565b6103e8821115610a115760405162461bcd60e51b81526020600482015260156024820152744665652063616e6e6f74206578636565642031302560581b60448201526064016104c1565b60058290556040518281527f45610d581145924dd7090a5017e5f2b1d6f42213bb2e95707ff86846bbfcb1ca9060200160405180910390a15050565b600082815260208190526040902060010154610a6881611678565b610a7283836117be565b50505050565b6001600160a01b0381163314610aa15760405163334bd91960e11b815260040160405180910390fd5b6109988282611850565b610ab3611682565b60008181526002602052604081208054909103610ae25760405162461bcd60e51b81526004016104c190611f82565b60018101546001600160a01b03163314610b3e5760405162461bcd60e51b815260206004820152601760248201527f4f6e6c7920636c69656e742063616e20617070726f766500000000000000000060448201526064016104c1565b600260068083015460ff1690811115610b5957610b59611c25565b1480610b7d5750600160068083015460ff1690811115610b7b57610b7b611c25565b145b610bbe5760405162461bcd60e51b8152602060048201526012602482015271496e76616c6964206769672073746174757360701b60448201526064016104c1565b60068101805460ff1916600317905542600a820155610bdc8261169e565b50610bf4600160008051602061202783398151915255565b50565b6001600160a01b038116600090815260036020908152604091829020805483518184028101840190945280845260609392830182828015610c5757602002820191906000526020600020905b815481526020019060010190808311610c43575b50505050509050919050565b60008181526002602052604081208054909103610c925760405162461bcd60e51b81526004016104c190611f82565b60018101546001600160a01b03163314610ce75760405162461bcd60e51b815260206004820152601660248201527513db9b1e4818db1a595b9d0818d85b8818d85b98d95b60521b60448201526064016104c1565b600060068083015460ff1690811115610d0257610d02611c25565b14610d4f5760405162461bcd60e51b815260206004820152601d60248201527f43616e206f6e6c792063616e63656c20756e66756e646564206769677300000060448201526064016104c1565b60068101805460ff1916600517905560405182907fed32a7868dd1701d125217f8867209cbb1c23f3cd6d044309a73d56b6c64702490600090a25050565b60026020819052600091825260409091208054600182015492820154600383015460048401546005850154600686015460078701805496986001600160a01b0390811698968116979516959394929360ff90921692610deb90611e3a565b80601f0160208091040260200160405190810160405280929190818152602001828054610e1790611e3a565b8015610e645780601f10610e3957610100808354040283529160200191610e64565b820191906000526020600020905b815481529060010190602001808311610e4757829003601f168201915b50505050509080600801549080600901549080600a015490508b565b6001600160a01b038116600090815260046020908152604091829020805483518184028101840190945280845260609392830182828015610c575760200282019190600052602060002090815481526020019060010190808311610c435750505050509050919050565b610ef2611682565b60008181526002602052604081208054909103610f215760405162461bcd60e51b81526004016104c190611f82565b60018101546001600160a01b03163314610f745760405162461bcd60e51b815260206004820152601460248201527313db9b1e4818db1a595b9d0818d85b88199d5b9960621b60448201526064016104c1565b600060068083015460ff1690811115610f8f57610f8f611c25565b14610fd15760405162461bcd60e51b815260206004820152601260248201527111da59c8185b1c9958591e48199d5b99195960721b60448201526064016104c1565b60038101546004808301546040516370a0823160e01b815233928101929092526001600160a01b03909216919082906370a0823190602401602060405180830381865afa158015611026573d6000803e3d6000fd5b505050506040513d601f19601f8201168201806040525081019061104a9190611fae565b101561108f5760405162461bcd60e51b8152602060048201526014602482015273496e73756666696369656e742062616c616e636560601b60448201526064016104c1565b60068201805460ff1916600117905542600983015560048201546110c1906001600160a01b03831690339030906118bb565b827fbf2c8ab5d55b8d8031b89556d55a3217f24046a98b4f5f510bbf8423ce238a8a83600401546040516110f791815260200190565b60405180910390a25050610bf4600160008051602061202783398151915255565b6000918252602082815260408084206001600160a01b0393909316845291905290205460ff1690565b6003602052816000526040600020818154811061115d57600080fd5b90600052602060002001600091509150505481565b7fa49807205ce4d355092ef5a8a18f56e8913cf4a201fbe287825b095693c2177561119c81611678565b6001600160a01b0382166111e45760405162461bcd60e51b815260206004820152600f60248201526e496e76616c6964206164647265737360881b60448201526064016104c1565b50600680546001600160a01b0319166001600160a01b0392909216919091179055565b600081815260026020526040812080549091036112365760405162461bcd60e51b81526004016104c190611f82565b60018101546001600160a01b031633148061125d575060028101546001600160a01b031633145b61129a5760405162461bcd60e51b815260206004820152600e60248201526d139bdd08185d5d1a1bdc9a5e995960921b60448201526064016104c1565b600160068083015460ff16908111156112b5576112b5611c25565b14806112d95750600260068083015460ff16908111156112d7576112d7611c25565b145b6113255760405162461bcd60e51b815260206004820152601c60248201527f43616e6e6f74206469737075746520617420746869732073746167650000000060448201526064016104c1565b60068101805460ff19166004179055604051339083907f4692503f78893dfefd71edda8ffb8c490c3a203607b5cbaa7e7585a5b3efe8d090600090a35050565b6113c26040805161016081018252600080825260208201819052918101829052606081018290526080810182905260a081018290529060c08201908152602001606081526020016000815260200160008152602001600081525090565b6000828152600260208181526040928390208351610160810185528154815260018201546001600160a01b039081169382019390935292810154821693830193909352600383015416606082015260048201546080820152600582015460a082015260068083015491929160c084019160ff9091169081111561144757611447611c25565b600681111561145857611458611c25565b815260200160078201805461146c90611e3a565b80601f016020809104026020016040519081016040528092919081815260200182805461149890611e3a565b80156114e55780601f106114ba576101008083540402835291602001916114e5565b820191906000526020600020905b8154815290600101906020018083116114c857829003601f168201915b505050505081526020016008820154815260200160098201548152602001600a820154815250509050919050565b600081815260026020526040812080549091036115425760405162461bcd60e51b81526004016104c190611f82565b60028101546001600160a01b0316331461159e5760405162461bcd60e51b815260206004820152601a60248201527f4f6e6c7920667265656c616e6365722063616e207375626d697400000000000060448201526064016104c1565b600160068083015460ff16908111156115b9576115b9611c25565b146115f75760405162461bcd60e51b815260206004820152600e60248201526d11da59c81b9bdd08199d5b99195960921b60448201526064016104c1565b60068101805460ff19166002179055604051339083907f2e1034180f85502b3a04560be6ed4c24fe9b9c9e0bd7f4e09720494ac48859fa90600090a35050565b60008281526020819052604090206001015461165281611678565b610a728383611850565b6004602052816000526040600020818154811061115d57600080fd5b610bf481336118f1565b61168a61192e565b600260008051602061202783398151915255565b60008181526002602052604081206003810154600554600483015492936001600160a01b0390921692612710916116d491611fc7565b6116de9190611fde565b905060008184600401546116f29190612000565b905081600760008282546117069190612013565b90915550506002840154611727906001600160a01b03858116911683611789565b811561174757600654611747906001600160a01b03858116911684611789565b604080518281526020810184905286917fd50431560ffa04836c47148ddfdf891200b444df35679b9cf2b4e08a2143bfa2910160405180910390a25050505050565b6117968383836001611960565b61099857604051635274afe760e01b81526001600160a01b03841660048201526024016104c1565b60006117ca8383611118565b611848576000838152602081815260408083206001600160a01b03861684529091529020805460ff191660011790556118003390565b6001600160a01b0316826001600160a01b0316847f2f8788117e7eff1d82e926ec794901d17c78024a50270940304540a733656f0d60405160405180910390a4506001610467565b506000610467565b600061185c8383611118565b15611848576000838152602081815260408083206001600160a01b0386168085529252808320805460ff1916905551339286917ff6391f5c32d9c69d2a47ea670b442974b53935d1edc7fd64eb21e047a839171b9190a4506001610467565b6118c98484848460016119c6565b610a7257604051635274afe760e01b81526001600160a01b03851660048201526024016104c1565b6118fb8282611118565b61192a5760405163e2517d3f60e01b81526001600160a01b0382166004820152602481018390526044016104c1565b5050565b6000805160206120278339815191525460020361195e57604051633ee5aeb560e01b815260040160405180910390fd5b565b60405163a9059cbb60e01b60008181526001600160a01b038616600452602485905291602083604481808b5af1925060016000511483166119ba5783831516156119ad573d6000823e3d81fd5b6000873b113d1516831692505b60405250949350505050565b6040516323b872dd60e01b60008181526001600160a01b038781166004528616602452604485905291602083606481808c5af192506001600051148316611a26578383151615611a19573d6000823e3d81fd5b6000883b113d1516831692505b60405250600060605295945050505050565b600060208284031215611a4a57600080fd5b81356001600160e01b031981168114611a6257600080fd5b9392505050565b80356001600160a01b0381168114611a8057600080fd5b919050565b634e487b7160e01b600052604160045260246000fd5b600080600080600060a08688031215611ab357600080fd5b611abc86611a69565b9450611aca60208701611a69565b93506040860135925060608601359150608086013567ffffffffffffffff80821115611af557600080fd5b818801915088601f830112611b0957600080fd5b813581811115611b1b57611b1b611a85565b604051601f8201601f19908116603f01168101908382118183101715611b4357611b43611a85565b816040528281528b6020848701011115611b5c57600080fd5b8260208601602083013760006020848301015280955050505050509295509295909350565b60008060408385031215611b9457600080fd5b82359150611ba460208401611a69565b90509250929050565b600060208284031215611bbf57600080fd5b5035919050565b600060208284031215611bd857600080fd5b611a6282611a69565b6020808252825182820181905260009190848201906040850190845b81811015611c1957835183529284019291840191600101611bfd565b50909695505050505050565b634e487b7160e01b600052602160045260246000fd5b60078110611c5957634e487b7160e01b600052602160045260246000fd5b9052565b6000815180845260005b81811015611c8357602081850181015186830182015201611c67565b506000602082860101526020601f19601f83011685010191505092915050565b8b81526001600160a01b038b811660208301528a81166040830152891660608201526080810188905260a081018790526000610160611ce560c0840189611c3b565b8060e0840152611cf781840188611c5d565b61010084019690965250506101208101929092526101409091015298975050505050505050565b60008060408385031215611d3157600080fd5b611d3a83611a69565b946020939093013593505050565b602081528151602082015260006020830151611d6f60408401826001600160a01b03169052565b5060408301516001600160a01b03811660608401525060608301516001600160a01b038116608084015250608083015160a083015260a083015160c083015260c0830151611dc060e0840182611c3b565b5060e08301516101606101008181860152611ddf610180860184611c5d565b908601516101208681019190915286015161014080870191909152909501519301929092525090919050565b634e487b7160e01b600052601160045260246000fd5b600060018201611e3357611e33611e0b565b5060010190565b600181811c90821680611e4e57607f821691505b602082108103611e6e57634e487b7160e01b600052602260045260246000fd5b50919050565b601f82111561099857600081815260208120601f850160051c81016020861015611e9b5750805b601f850160051c820191505b81811015611eba57828155600101611ea7565b505050505050565b815167ffffffffffffffff811115611edc57611edc611a85565b611ef081611eea8454611e3a565b84611e74565b602080601f831160018114611f255760008415611f0d5750858301515b600019600386901b1c1916600185901b178555611eba565b600085815260208120601f198616915b82811015611f5457888601518255948401946001909101908401611f35565b5085821015611f725787850151600019600388901b60f8161c191681555b5050505050600190811b01905550565b60208082526012908201527111da59c8191bd95cc81b9bdd08195e1a5cdd60721b604082015260600190565b600060208284031215611fc057600080fd5b5051919050565b808202811582820484141761046757610467611e0b565b600082611ffb57634e487b7160e01b600052601260045260246000fd5b500490565b8181038181111561046757610467611e0b565b8082018082111561046757610467611e0b56fe9b779b17422d0df92223018b32b4d1fa46e071723d6817e2486d003becc55f00a26469706673582212208d0fde514b2c7365410b9901a5fbe2dada05d69ae573c09f6b188db131b185d064736f6c63430008140033","opcodes":"PUSH1 0x80 PUSH1 0x40 MSTORE PUSH1 0xFA PUSH1 0x5 SSTORE CALLVALUE DUP1 ISZERO PUSH3 0x16 JUMPI PUSH1 0x0 DUP1 REVERT JUMPDEST POP PUSH1 0x40 MLOAD PUSH3 0x22AF CODESIZE SUB DUP1 PUSH3 0x22AF DUP4 CODECOPY DUP2 ADD PUSH1 0x40 DUP2 SWAP1 MSTORE PUSH3 0x39 SWAP2 PUSH3 0x1F1 JUMP JUMPDEST PUSH1 0x1 PUSH32 0x9B779B17422D0DF92223018B32B4D1FA46E071723D6817E2486D003BECC55F00 SSTORE PUSH1 0x1 PUSH1 0x1 PUSH1 0xA0 SHL SUB DUP2 AND PUSH3 0xB8 JUMPI PUSH1 0x40 MLOAD PUSH3 0x461BCD PUSH1 0xE5 SHL DUP2 MSTORE PUSH1 0x20 PUSH1 0x4 DUP3 ADD MSTORE PUSH1 0x15 PUSH1 0x24 DUP3 ADD MSTORE PUSH32 0x496E76616C69642066656520636F6C6C6563746F720000000000000000000000 PUSH1 0x44 DUP3 ADD MSTORE PUSH1 0x64 ADD PUSH1 0x40 MLOAD DUP1 SWAP2 SUB SWAP1 REVERT JUMPDEST PUSH1 0x6 DUP1 SLOAD PUSH1 0x1 PUSH1 0x1 PUSH1 0xA0 SHL SUB NOT AND PUSH1 0x1 PUSH1 0x1 PUSH1 0xA0 SHL SUB DUP4 AND OR SWAP1 SSTORE PUSH3 0xE0 PUSH1 0x0 CALLER PUSH3 0x142 JUMP JUMPDEST POP PUSH3 0x10D PUSH32 0xA49807205CE4D355092EF5A8A18F56E8913CF4A201FBE287825B095693C21775 CALLER PUSH3 0x142 JUMP JUMPDEST POP PUSH3 0x13A PUSH32 0xBB08418A67729A078F87BBC8D02A770929BB68F5BFDF134AE2EAD6ED38E2F4AE CALLER PUSH3 0x142 JUMP JUMPDEST POP POP PUSH3 0x223 JUMP JUMPDEST PUSH1 0x0 DUP3 DUP2 MSTORE PUSH1 0x20 DUP2 DUP2 MSTORE PUSH1 0x40 DUP1 DUP4 KECCAK256 PUSH1 0x1 PUSH1 0x1 PUSH1 0xA0 SHL SUB DUP6 AND DUP5 MSTORE SWAP1 SWAP2 MSTORE DUP2 KECCAK256 SLOAD PUSH1 0xFF AND PUSH3 0x1E7 JUMPI PUSH1 0x0 DUP4 DUP2 MSTORE PUSH1 0x20 DUP2 DUP2 MSTORE PUSH1 0x40 DUP1 DUP4 KECCAK256 PUSH1 0x1 PUSH1 0x1 PUSH1 0xA0 SHL SUB DUP7 AND DUP5 MSTORE SWAP1 SWAP2 MSTORE SWAP1 KECCAK256 DUP1 SLOAD PUSH1 0xFF NOT AND PUSH1 0x1 OR SWAP1 SSTORE PUSH3 0x19E CALLER SWAP1 JUMP JUMPDEST PUSH1 0x1 PUSH1 0x1 PUSH1 0xA0 SHL SUB AND DUP3 PUSH1 0x1 PUSH1 0x1 PUSH1 0xA0 SHL SUB AND DUP5 PUSH32 0x2F8788117E7EFF1D82E926EC794901D17C78024A50270940304540A733656F0D PUSH1 0x40 MLOAD PUSH1 0x40 MLOAD DUP1 SWAP2 SUB SWAP1 LOG4 POP PUSH1 0x1 PUSH3 0x1EB JUMP JUMPDEST POP PUSH1 0x0 JUMPDEST SWAP3 SWAP2 POP POP JUMP JUMPDEST PUSH1 0x0 PUSH1 0x20 DUP3 DUP5 SUB SLT ISZERO PUSH3 0x204 JUMPI PUSH1 0x0 DUP1 REVERT JUMPDEST DUP2 MLOAD PUSH1 0x1 PUSH1 0x1 PUSH1 0xA0 SHL SUB DUP2 AND DUP2 EQ PUSH3 0x21C JUMPI PUSH1 0x0 DUP1 REVERT JUMPDEST SWAP4 SWAP3 POP POP POP JUMP JUMPDEST PUSH2 0x207C DUP1 PUSH3 0x233 PUSH1 0x0 CODECOPY PUSH1 0x0 RETURN INVALID PUSH1 0x80 PUSH1 0x40 MSTORE CALLVALUE DUP1 ISZERO PUSH2 0x10 JUMPI PUSH1 0x0 DUP1 REVERT JUMPDEST POP PUSH1 0x4 CALLDATASIZE LT PUSH2 0x1A9 JUMPI PUSH1 0x0 CALLDATALOAD PUSH1 0xE0 SHR DUP1 PUSH4 0x668C6CBB GT PUSH2 0xF9 JUMPI DUP1 PUSH4 0xA42DCE80 GT PUSH2 0x97 JUMPI DUP1 PUSH4 0xC415B95C GT PUSH2 0x71 JUMPI DUP1 PUSH4 0xC415B95C EQ PUSH2 0x3D2 JUMPI DUP1 PUSH4 0xC4C11523 EQ PUSH2 0x3FD JUMPI DUP1 PUSH4 0xD547741F EQ PUSH2 0x410 JUMPI DUP1 PUSH4 0xFAC210E9 EQ PUSH2 0x423 JUMPI PUSH1 0x0 DUP1 REVERT JUMPDEST DUP1 PUSH4 0xA42DCE80 EQ PUSH2 0x38C JUMPI DUP1 PUSH4 0xA5C1674E EQ PUSH2 0x39F JUMPI DUP1 PUSH4 0xB3479ED4 EQ PUSH2 0x3B2 JUMPI PUSH1 0x0 DUP1 REVERT JUMPDEST DUP1 PUSH4 0x8DE8616F GT PUSH2 0xD3 JUMPI DUP1 PUSH4 0x8DE8616F EQ PUSH2 0x34B JUMPI DUP1 PUSH4 0x91D14854 EQ PUSH2 0x35E JUMPI DUP1 PUSH4 0x96E7DFE6 EQ PUSH2 0x371 JUMPI DUP1 PUSH4 0xA217FDDF EQ PUSH2 0x384 JUMPI PUSH1 0x0 DUP1 REVERT JUMPDEST DUP1 PUSH4 0x668C6CBB EQ PUSH2 0x308 JUMPI DUP1 PUSH4 0x75B238FC EQ PUSH2 0x31B JUMPI DUP1 PUSH4 0x8C639A85 EQ PUSH2 0x342 JUMPI PUSH1 0x0 DUP1 REVERT JUMPDEST DUP1 PUSH4 0x36568ABE GT PUSH2 0x166 JUMPI DUP1 PUSH4 0x4BCA9A88 GT PUSH2 0x140 JUMPI DUP1 PUSH4 0x4BCA9A88 EQ PUSH2 0x29B JUMPI DUP1 PUSH4 0x4D104ADF EQ PUSH2 0x2AE JUMPI DUP1 PUSH4 0x5E3FBDC8 EQ PUSH2 0x2D5 JUMPI DUP1 PUSH4 0x60C6D8AE EQ PUSH2 0x2FF JUMPI PUSH1 0x0 DUP1 REVERT JUMPDEST DUP1 PUSH4 0x36568ABE EQ PUSH2 0x255 JUMPI DUP1 PUSH4 0x3D01E0FA EQ PUSH2 0x268 JUMPI DUP1 PUSH4 0x40A7EA08 EQ PUSH2 0x27B JUMPI PUSH1 0x0 DUP1 REVERT JUMPDEST DUP1 PUSH4 0x1FFC9A7 EQ PUSH2 0x1AE JUMPI DUP1 PUSH4 0x3F8ED9F EQ PUSH2 0x1D6 JUMPI DUP1 PUSH4 0xE33599D EQ PUSH2 0x1F7 JUMPI DUP1 PUSH4 0x12E8E2C3 EQ PUSH2 0x20C JUMPI DUP1 PUSH4 0x248A9CA3 EQ PUSH2 0x21F JUMPI DUP1 PUSH4 0x2F2FF15D EQ PUSH2 0x242 JUMPI JUMPDEST PUSH1 0x0 DUP1 REVERT JUMPDEST PUSH2 0x1C1 PUSH2 0x1BC CALLDATASIZE PUSH1 0x4 PUSH2 0x1A38 JUMP JUMPDEST PUSH2 0x436 JUMP JUMPDEST PUSH1 0x40 MLOAD SWAP1 ISZERO ISZERO DUP2 MSTORE PUSH1 0x20 ADD JUMPDEST PUSH1 0x40 MLOAD DUP1 SWAP2 SUB SWAP1 RETURN JUMPDEST PUSH2 0x1E9 PUSH2 0x1E4 CALLDATASIZE PUSH1 0x4 PUSH2 0x1A9B JUMP JUMPDEST PUSH2 0x46D JUMP JUMPDEST PUSH1 0x40 MLOAD SWAP1 DUP2 MSTORE PUSH1 0x20 ADD PUSH2 0x1CD JUMP JUMPDEST PUSH2 0x20A PUSH2 0x205 CALLDATASIZE PUSH1 0x4 PUSH2 0x1B81 JUMP JUMPDEST PUSH2 0x799 JUMP JUMPDEST STOP JUMPDEST PUSH2 0x20A PUSH2 0x21A CALLDATASIZE PUSH1 0x4 PUSH2 0x1BAD JUMP JUMPDEST PUSH2 0x99D JUMP JUMPDEST PUSH2 0x1E9 PUSH2 0x22D CALLDATASIZE PUSH1 0x4 PUSH2 0x1BAD JUMP JUMPDEST PUSH1 0x0 SWAP1 DUP2 MSTORE PUSH1 0x20 DUP2 SWAP1 MSTORE PUSH1 0x40 SWAP1 KECCAK256 PUSH1 0x1 ADD SLOAD SWAP1 JUMP JUMPDEST PUSH2 0x20A PUSH2 0x250 CALLDATASIZE PUSH1 0x4 PUSH2 0x1B81 JUMP JUMPDEST PUSH2 0xA4D JUMP JUMPDEST PUSH2 0x20A PUSH2 0x263 CALLDATASIZE PUSH1 0x4 PUSH2 0x1B81 JUMP JUMPDEST PUSH2 0xA78 JUMP JUMPDEST PUSH2 0x20A PUSH2 0x276 CALLDATASIZE PUSH1 0x4 PUSH2 0x1BAD JUMP JUMPDEST PUSH2 0xAAB JUMP JUMPDEST PUSH2 0x28E PUSH2 0x289 CALLDATASIZE PUSH1 0x4 PUSH2 0x1BC6 JUMP JUMPDEST PUSH2 0xBF7 JUMP JUMPDEST PUSH1 0x40 MLOAD PUSH2 0x1CD SWAP2 SWAP1 PUSH2 0x1BE1 JUMP JUMPDEST PUSH2 0x20A PUSH2 0x2A9 CALLDATASIZE PUSH1 0x4 PUSH2 0x1BAD JUMP JUMPDEST PUSH2 0xC63 JUMP JUMPDEST PUSH2 0x1E9 PUSH32 0xBB08418A67729A078F87BBC8D02A770929BB68F5BFDF134AE2EAD6ED38E2F4AE DUP2 JUMP JUMPDEST PUSH2 0x2E8 PUSH2 0x2E3 CALLDATASIZE PUSH1 0x4 PUSH2 0x1BAD JUMP JUMPDEST PUSH2 0xD8D JUMP JUMPDEST PUSH1 0x40 MLOAD PUSH2 0x1CD SWAP12 SWAP11 SWAP10 SWAP9 SWAP8 SWAP7 SWAP6 SWAP5 SWAP4 SWAP3 SWAP2 SWAP1 PUSH2 0x1CA3 JUMP JUMPDEST PUSH2 0x1E9 PUSH1 0x7 SLOAD DUP2 JUMP JUMPDEST PUSH2 0x28E PUSH2 0x316 CALLDATASIZE PUSH1 0x4 PUSH2 0x1BC6 JUMP JUMPDEST PUSH2 0xE80 JUMP JUMPDEST PUSH2 0x1E9 PUSH32 0xA49807205CE4D355092EF5A8A18F56E8913CF4A201FBE287825B095693C21775 DUP2 JUMP JUMPDEST PUSH2 0x1E9 PUSH1 0x5 SLOAD DUP2 JUMP JUMPDEST PUSH2 0x20A PUSH2 0x359 CALLDATASIZE PUSH1 0x4 PUSH2 0x1BAD JUMP JUMPDEST PUSH2 0xEEA JUMP JUMPDEST PUSH2 0x1C1 PUSH2 0x36C CALLDATASIZE PUSH1 0x4 PUSH2 0x1B81 JUMP JUMPDEST PUSH2 0x1118 JUMP JUMPDEST PUSH2 0x1E9 PUSH2 0x37F CALLDATASIZE PUSH1 0x4 PUSH2 0x1D1E JUMP JUMPDEST PUSH2 0x1141 JUMP JUMPDEST PUSH2 0x1E9 PUSH1 0x0 DUP2 JUMP JUMPDEST PUSH2 0x20A PUSH2 0x39A CALLDATASIZE PUSH1 0x4 PUSH2 0x1BC6 JUMP JUMPDEST PUSH2 0x1172 JUMP JUMPDEST PUSH2 0x20A PUSH2 0x3AD CALLDATASIZE PUSH1 0x4 PUSH2 0x1BAD JUMP JUMPDEST PUSH2 0x1207 JUMP JUMPDEST PUSH2 0x3C5 PUSH2 0x3C0 CALLDATASIZE PUSH1 0x4 PUSH2 0x1BAD JUMP JUMPDEST PUSH2 0x1365 JUMP JUMPDEST PUSH1 0x40 MLOAD PUSH2 0x1CD SWAP2 SWAP1 PUSH2 0x1D48 JUMP JUMPDEST PUSH1 0x6 SLOAD PUSH2 0x3E5 SWAP1 PUSH1 0x1 PUSH1 0x1 PUSH1 0xA0 SHL SUB AND DUP2 JUMP JUMPDEST PUSH1 0x40 MLOAD PUSH1 0x1 PUSH1 0x1 PUSH1 0xA0 SHL SUB SWAP1 SWAP2 AND DUP2 MSTORE PUSH1 0x20 ADD PUSH2 0x1CD JUMP JUMPDEST PUSH2 0x20A PUSH2 0x40B CALLDATASIZE PUSH1 0x4 PUSH2 0x1BAD JUMP JUMPDEST PUSH2 0x1513 JUMP JUMPDEST PUSH2 0x20A PUSH2 0x41E CALLDATASIZE PUSH1 0x4 PUSH2 0x1B81 JUMP JUMPDEST PUSH2 0x1637 JUMP JUMPDEST PUSH2 0x1E9 PUSH2 0x431 CALLDATASIZE PUSH1 0x4 PUSH2 0x1D1E JUMP JUMPDEST PUSH2 0x165C JUMP JUMPDEST PUSH1 0x0 PUSH1 0x1 PUSH1 0x1 PUSH1 0xE0 SHL SUB NOT DUP3 AND PUSH4 0x7965DB0B PUSH1 0xE0 SHL EQ DUP1 PUSH2 0x467 JUMPI POP PUSH4 0x1FFC9A7 PUSH1 0xE0 SHL PUSH1 0x1 PUSH1 0x1 PUSH1 0xE0 SHL SUB NOT DUP4 AND EQ JUMPDEST SWAP3 SWAP2 POP POP JUMP JUMPDEST PUSH1 0x0 PUSH1 0x1 PUSH1 0x1 PUSH1 0xA0 SHL SUB DUP7 AND PUSH2 0x4CA JUMPI PUSH1 0x40 MLOAD PUSH3 0x461BCD PUSH1 0xE5 SHL DUP2 MSTORE PUSH1 0x20 PUSH1 0x4 DUP3 ADD MSTORE PUSH1 0x1A PUSH1 0x24 DUP3 ADD MSTORE PUSH32 0x496E76616C696420667265656C616E6365722061646472657373000000000000 PUSH1 0x44 DUP3 ADD MSTORE PUSH1 0x64 ADD JUMPDEST PUSH1 0x40 MLOAD DUP1 SWAP2 SUB SWAP1 REVERT JUMPDEST CALLER PUSH1 0x1 PUSH1 0x1 PUSH1 0xA0 SHL SUB DUP8 AND SUB PUSH2 0x522 JUMPI PUSH1 0x40 MLOAD PUSH3 0x461BCD PUSH1 0xE5 SHL DUP2 MSTORE PUSH1 0x20 PUSH1 0x4 DUP3 ADD MSTORE PUSH1 0x1B PUSH1 0x24 DUP3 ADD MSTORE PUSH32 0x436C69656E742063616E6E6F7420626520667265656C616E6365720000000000 PUSH1 0x44 DUP3 ADD MSTORE PUSH1 0x64 ADD PUSH2 0x4C1 JUMP JUMPDEST PUSH1 0x0 DUP5 GT PUSH2 0x572 JUMPI PUSH1 0x40 MLOAD PUSH3 0x461BCD PUSH1 0xE5 SHL DUP2 MSTORE PUSH1 0x20 PUSH1 0x4 DUP3 ADD MSTORE PUSH1 0x1D PUSH1 0x24 DUP3 ADD MSTORE PUSH32 0x416D6F756E74206D7573742062652067726561746572207468616E2030000000 PUSH1 0x44 DUP3 ADD MSTORE PUSH1 0x64 ADD PUSH2 0x4C1 JUMP JUMPDEST TIMESTAMP DUP4 GT PUSH2 0x5C1 JUMPI PUSH1 0x40 MLOAD PUSH3 0x461BCD PUSH1 0xE5 SHL DUP2 MSTORE PUSH1 0x20 PUSH1 0x4 DUP3 ADD MSTORE PUSH1 0x1A PUSH1 0x24 DUP3 ADD MSTORE PUSH32 0x446561646C696E65206D75737420626520696E20667574757265000000000000 PUSH1 0x44 DUP3 ADD MSTORE PUSH1 0x64 ADD PUSH2 0x4C1 JUMP JUMPDEST PUSH1 0x1 DUP1 SLOAD SWAP1 PUSH1 0x0 PUSH2 0x5D1 DUP4 PUSH2 0x1E21 JUMP JUMPDEST SWAP1 SWAP2 SSTORE POP POP PUSH1 0x1 DUP1 SLOAD PUSH1 0x40 DUP1 MLOAD PUSH2 0x160 DUP2 ADD DUP3 MSTORE DUP3 DUP2 MSTORE CALLER PUSH1 0x20 DUP1 DUP4 ADD SWAP2 DUP3 MSTORE PUSH1 0x1 PUSH1 0x1 PUSH1 0xA0 SHL SUB DUP13 DUP2 AND DUP5 DUP7 ADD SWAP1 DUP2 MSTORE DUP13 DUP3 AND PUSH1 0x60 DUP7 ADD SWAP1 DUP2 MSTORE PUSH1 0x80 DUP7 ADD DUP14 DUP2 MSTORE PUSH1 0xA0 DUP8 ADD DUP14 DUP2 MSTORE PUSH1 0x0 PUSH1 0xC0 DUP10 ADD DUP2 DUP2 MSTORE PUSH1 0xE0 DUP11 ADD DUP16 SWAP1 MSTORE TIMESTAMP PUSH2 0x100 DUP12 ADD MSTORE PUSH2 0x120 DUP11 ADD DUP3 SWAP1 MSTORE PUSH2 0x140 DUP11 ADD DUP3 SWAP1 MSTORE DUP12 DUP3 MSTORE PUSH1 0x2 SWAP8 DUP9 SWAP1 MSTORE SWAP10 SWAP1 KECCAK256 DUP9 MLOAD DUP2 SSTORE SWAP7 MLOAD DUP8 DUP13 ADD DUP1 SLOAD SWAP2 DUP8 AND PUSH1 0x1 PUSH1 0x1 PUSH1 0xA0 SHL SUB NOT SWAP3 DUP4 AND OR SWAP1 SSTORE SWAP4 MLOAD SWAP6 DUP8 ADD DUP1 SLOAD SWAP7 DUP7 AND SWAP7 DUP6 AND SWAP7 SWAP1 SWAP7 OR SWAP1 SWAP6 SSTORE SWAP1 MLOAD PUSH1 0x3 DUP7 ADD DUP1 SLOAD SWAP2 SWAP1 SWAP5 AND SWAP3 AND SWAP2 SWAP1 SWAP2 OR SWAP1 SWAP2 SSTORE MLOAD PUSH1 0x4 DUP4 ADD SSTORE MLOAD PUSH1 0x5 DUP3 ADD SSTORE SWAP2 MLOAD PUSH1 0x6 DUP1 DUP5 ADD DUP1 SLOAD SWAP6 SWAP7 SWAP4 SWAP6 SWAP3 SWAP4 SWAP1 SWAP3 PUSH1 0xFF NOT AND SWAP2 DUP5 SWAP1 DUP2 GT ISZERO PUSH2 0x6C6 JUMPI PUSH2 0x6C6 PUSH2 0x1C25 JUMP JUMPDEST MUL OR SWAP1 SSTORE POP PUSH1 0xE0 DUP3 ADD MLOAD PUSH1 0x7 DUP3 ADD SWAP1 PUSH2 0x6DF SWAP1 DUP3 PUSH2 0x1EC2 JUMP JUMPDEST POP PUSH2 0x100 DUP3 ADD MLOAD PUSH1 0x8 DUP3 ADD SSTORE PUSH2 0x120 DUP3 ADD MLOAD PUSH1 0x9 DUP3 ADD SSTORE PUSH2 0x140 SWAP1 SWAP2 ADD MLOAD PUSH1 0xA SWAP1 SWAP2 ADD SSTORE CALLER PUSH1 0x0 DUP2 DUP2 MSTORE PUSH1 0x3 PUSH1 0x20 SWAP1 DUP2 MSTORE PUSH1 0x40 DUP1 DUP4 KECCAK256 DUP1 SLOAD PUSH1 0x1 DUP1 DUP3 ADD DUP4 SSTORE SWAP2 DUP6 MSTORE DUP4 DUP6 KECCAK256 ADD DUP7 SWAP1 SSTORE PUSH1 0x1 PUSH1 0x1 PUSH1 0xA0 SHL SUB DUP13 DUP2 AND DUP1 DUP7 MSTORE PUSH1 0x4 DUP6 MSTORE DUP4 DUP7 KECCAK256 DUP1 SLOAD SWAP4 DUP5 ADD DUP2 SSTORE DUP7 MSTORE SWAP5 DUP5 SWAP1 KECCAK256 SWAP1 SWAP2 ADD DUP7 SWAP1 SSTORE DUP2 MLOAD DUP11 DUP2 MSTORE SWAP1 DUP12 AND SWAP3 DUP2 ADD SWAP3 SWAP1 SWAP3 MSTORE SWAP2 SWAP3 SWAP2 DUP5 SWAP2 PUSH32 0x427CC4FB6990C075C47725F01464F04840979D5F5A2FDA9EED33B7475A12A23E SWAP2 ADD PUSH1 0x40 MLOAD DUP1 SWAP2 SUB SWAP1 LOG4 SWAP7 SWAP6 POP POP POP POP POP POP JUMP JUMPDEST PUSH32 0xBB08418A67729A078F87BBC8D02A770929BB68F5BFDF134AE2EAD6ED38E2F4AE PUSH2 0x7C3 DUP2 PUSH2 0x1678 JUMP JUMPDEST PUSH2 0x7CB PUSH2 0x1682 JUMP JUMPDEST PUSH1 0x0 DUP4 DUP2 MSTORE PUSH1 0x2 PUSH1 0x20 MSTORE PUSH1 0x40 DUP2 KECCAK256 DUP1 SLOAD SWAP1 SWAP2 SUB PUSH2 0x7FA JUMPI PUSH1 0x40 MLOAD PUSH3 0x461BCD PUSH1 0xE5 SHL DUP2 MSTORE PUSH1 0x4 ADD PUSH2 0x4C1 SWAP1 PUSH2 0x1F82 JUMP JUMPDEST PUSH1 0x4 PUSH1 0x6 DUP1 DUP4 ADD SLOAD PUSH1 0xFF AND SWAP1 DUP2 GT ISZERO PUSH2 0x815 JUMPI PUSH2 0x815 PUSH2 0x1C25 JUMP JUMPDEST EQ PUSH2 0x855 JUMPI PUSH1 0x40 MLOAD PUSH3 0x461BCD PUSH1 0xE5 SHL DUP2 MSTORE PUSH1 0x20 PUSH1 0x4 DUP3 ADD MSTORE PUSH1 0x10 PUSH1 0x24 DUP3 ADD MSTORE PUSH16 0x11DA59C81B9BDD08191A5CDC1D5D1959 PUSH1 0x82 SHL PUSH1 0x44 DUP3 ADD MSTORE PUSH1 0x64 ADD PUSH2 0x4C1 JUMP JUMPDEST PUSH1 0x1 DUP2 ADD SLOAD PUSH1 0x1 PUSH1 0x1 PUSH1 0xA0 SHL SUB DUP5 DUP2 AND SWAP2 AND EQ DUP1 PUSH2 0x882 JUMPI POP PUSH1 0x2 DUP2 ADD SLOAD PUSH1 0x1 PUSH1 0x1 PUSH1 0xA0 SHL SUB DUP5 DUP2 AND SWAP2 AND EQ JUMPDEST PUSH2 0x8BF JUMPI PUSH1 0x40 MLOAD PUSH3 0x461BCD PUSH1 0xE5 SHL DUP2 MSTORE PUSH1 0x20 PUSH1 0x4 DUP3 ADD MSTORE PUSH1 0xE PUSH1 0x24 DUP3 ADD MSTORE PUSH14 0x24B73B30B634B2103BB4B73732B9 PUSH1 0x91 SHL PUSH1 0x44 DUP3 ADD MSTORE PUSH1 0x64 ADD PUSH2 0x4C1 JUMP JUMPDEST PUSH1 0x3 DUP2 ADD SLOAD PUSH1 0x2 DUP3 ADD SLOAD PUSH1 0x1 PUSH1 0x1 PUSH1 0xA0 SHL SUB SWAP2 DUP3 AND SWAP2 SWAP1 DUP2 AND SWAP1 DUP6 AND SUB PUSH2 0x903 JUMPI PUSH1 0x6 DUP3 ADD DUP1 SLOAD PUSH1 0xFF NOT AND PUSH1 0x3 OR SWAP1 SSTORE TIMESTAMP PUSH1 0xA DUP4 ADD SSTORE PUSH2 0x8FE DUP6 PUSH2 0x169E JUMP JUMPDEST PUSH2 0x935 JUMP JUMPDEST PUSH1 0x6 DUP3 DUP2 ADD DUP1 SLOAD PUSH1 0xFF NOT AND SWAP1 SWAP2 OR SWAP1 SSTORE PUSH1 0x1 DUP3 ADD SLOAD PUSH1 0x4 DUP4 ADD SLOAD PUSH2 0x935 SWAP2 PUSH1 0x1 PUSH1 0x1 PUSH1 0xA0 SHL SUB DUP5 DUP2 AND SWAP3 SWAP2 AND SWAP1 PUSH2 0x1789 JUMP JUMPDEST PUSH1 0x4 DUP3 ADD SLOAD PUSH1 0x40 DUP1 MLOAD PUSH1 0x1 PUSH1 0x1 PUSH1 0xA0 SHL SUB DUP8 AND DUP2 MSTORE PUSH1 0x20 DUP2 ADD SWAP3 SWAP1 SWAP3 MSTORE DUP7 SWAP2 PUSH32 0xDF0BAF5489595EA17A097D16827D60793E2F57F3B85A982E5D7E02838B841EE6 SWAP2 ADD PUSH1 0x40 MLOAD DUP1 SWAP2 SUB SWAP1 LOG2 POP POP PUSH2 0x998 PUSH1 0x1 PUSH1 0x0 DUP1 MLOAD PUSH1 0x20 PUSH2 0x2027 DUP4 CODECOPY DUP2 MLOAD SWAP2 MSTORE SSTORE JUMP JUMPDEST POP POP POP JUMP JUMPDEST PUSH32 0xA49807205CE4D355092EF5A8A18F56E8913CF4A201FBE287825B095693C21775 PUSH2 0x9C7 DUP2 PUSH2 0x1678 JUMP JUMPDEST PUSH2 0x3E8 DUP3 GT ISZERO PUSH2 0xA11 JUMPI PUSH1 0x40 MLOAD PUSH3 0x461BCD PUSH1 0xE5 SHL DUP2 MSTORE PUSH1 0x20 PUSH1 0x4 DUP3 ADD MSTORE PUSH1 0x15 PUSH1 0x24 DUP3 ADD MSTORE PUSH21 0x4665652063616E6E6F742065786365656420313025 PUSH1 0x58 SHL PUSH1 0x44 DUP3 ADD MSTORE PUSH1 0x64 ADD PUSH2 0x4C1 JUMP JUMPDEST PUSH1 0x5 DUP3 SWAP1 SSTORE PUSH1 0x40 MLOAD DUP3 DUP2 MSTORE PUSH32 0x45610D581145924DD7090A5017E5F2B1D6F42213BB2E95707FF86846BBFCB1CA SWAP1 PUSH1 0x20 ADD PUSH1 0x40 MLOAD DUP1 SWAP2 SUB SWAP1 LOG1 POP POP JUMP JUMPDEST PUSH1 0x0 DUP3 DUP2 MSTORE PUSH1 0x20 DUP2 SWAP1 MSTORE PUSH1 0x40 SWAP1 KECCAK256 PUSH1 0x1 ADD SLOAD PUSH2 0xA68 DUP2 PUSH2 0x1678 JUMP JUMPDEST PUSH2 0xA72 DUP4 DUP4 PUSH2 0x17BE JUMP JUMPDEST POP POP POP POP JUMP JUMPDEST PUSH1 0x1 PUSH1 0x1 PUSH1 0xA0 SHL SUB DUP2 AND CALLER EQ PUSH2 0xAA1 JUMPI PUSH1 0x40 MLOAD PUSH4 0x334BD919 PUSH1 0xE1 SHL DUP2 MSTORE PUSH1 0x4 ADD PUSH1 0x40 MLOAD DUP1 SWAP2 SUB SWAP1 REVERT JUMPDEST PUSH2 0x998 DUP3 DUP3 PUSH2 0x1850 JUMP JUMPDEST PUSH2 0xAB3 PUSH2 0x1682 JUMP JUMPDEST PUSH1 0x0 DUP2 DUP2 MSTORE PUSH1 0x2 PUSH1 0x20 MSTORE PUSH1 0x40 DUP2 KECCAK256 DUP1 SLOAD SWAP1 SWAP2 SUB PUSH2 0xAE2 JUMPI PUSH1 0x40 MLOAD PUSH3 0x461BCD PUSH1 0xE5 SHL DUP2 MSTORE PUSH1 0x4 ADD PUSH2 0x4C1 SWAP1 PUSH2 0x1F82 JUMP JUMPDEST PUSH1 0x1 DUP2 ADD SLOAD PUSH1 0x1 PUSH1 0x1 PUSH1 0xA0 SHL SUB AND CALLER EQ PUSH2 0xB3E JUMPI PUSH1 0x40 MLOAD PUSH3 0x461BCD PUSH1 0xE5 SHL DUP2 MSTORE PUSH1 0x20 PUSH1 0x4 DUP3 ADD MSTORE PUSH1 0x17 PUSH1 0x24 DUP3 ADD MSTORE PUSH32 0x4F6E6C7920636C69656E742063616E20617070726F7665000000000000000000 PUSH1 0x44 DUP3 ADD MSTORE PUSH1 0x64 ADD PUSH2 0x4C1 JUMP JUMPDEST PUSH1 0x2 PUSH1 0x6 DUP1 DUP4 ADD SLOAD PUSH1 0xFF AND SWAP1 DUP2 GT ISZERO PUSH2 0xB59 JUMPI PUSH2 0xB59 PUSH2 0x1C25 JUMP JUMPDEST EQ DUP1 PUSH2 0xB7D JUMPI POP PUSH1 0x1 PUSH1 0x6 DUP1 DUP4 ADD SLOAD PUSH1 0xFF AND SWAP1 DUP2 GT ISZERO PUSH2 0xB7B JUMPI PUSH2 0xB7B PUSH2 0x1C25 JUMP JUMPDEST EQ JUMPDEST PUSH2 0xBBE JUMPI PUSH1 0x40 MLOAD PUSH3 0x461BCD PUSH1 0xE5 SHL DUP2 MSTORE PUSH1 0x20 PUSH1 0x4 DUP3 ADD MSTORE PUSH1 0x12 PUSH1 0x24 DUP3 ADD MSTORE PUSH18 0x496E76616C69642067696720737461747573 PUSH1 0x70 SHL PUSH1 0x44 DUP3 ADD MSTORE PUSH1 0x64 ADD PUSH2 0x4C1 JUMP JUMPDEST PUSH1 0x6 DUP2 ADD DUP1 SLOAD PUSH1 0xFF NOT AND PUSH1 0x3 OR SWAP1 SSTORE TIMESTAMP PUSH1 0xA DUP3 ADD SSTORE PUSH2 0xBDC DUP3 PUSH2 0x169E JUMP JUMPDEST POP PUSH2 0xBF4 PUSH1 0x1 PUSH1 0x0 DUP1 MLOAD PUSH1 0x20 PUSH2 0x2027 DUP4 CODECOPY DUP2 MLOAD SWAP2 MSTORE SSTORE JUMP JUMPDEST POP JUMP JUMPDEST PUSH1 0x1 PUSH1 0x1 PUSH1 0xA0 SHL SUB DUP2 AND PUSH1 0x0 SWAP1 DUP2 MSTORE PUSH1 0x3 PUSH1 0x20 SWAP1 DUP2 MSTORE PUSH1 0x40 SWAP2 DUP3 SWAP1 KECCAK256 DUP1 SLOAD DUP4 MLOAD DUP2 DUP5 MUL DUP2 ADD DUP5 ADD SWAP1 SWAP5 MSTORE DUP1 DUP5 MSTORE PUSH1 0x60 SWAP4 SWAP3 DUP4 ADD DUP3 DUP3 DUP1 ISZERO PUSH2 0xC57 JUMPI PUSH1 0x20 MUL DUP3 ADD SWAP2 SWAP1 PUSH1 0x0 MSTORE PUSH1 0x20 PUSH1 0x0 KECCAK256 SWAP1 JUMPDEST DUP2 SLOAD DUP2 MSTORE PUSH1 0x20 ADD SWAP1 PUSH1 0x1 ADD SWAP1 DUP1 DUP4 GT PUSH2 0xC43 JUMPI JUMPDEST POP POP POP POP POP SWAP1 POP SWAP2 SWAP1 POP JUMP JUMPDEST PUSH1 0x0 DUP2 DUP2 MSTORE PUSH1 0x2 PUSH1 0x20 MSTORE PUSH1 0x40 DUP2 KECCAK256 DUP1 SLOAD SWAP1 SWAP2 SUB PUSH2 0xC92 JUMPI PUSH1 0x40 MLOAD PUSH3 0x461BCD PUSH1 0xE5 SHL DUP2 MSTORE PUSH1 0x4 ADD PUSH2 0x4C1 SWAP1 PUSH2 0x1F82 JUMP JUMPDEST PUSH1 0x1 DUP2 ADD SLOAD PUSH1 0x1 PUSH1 0x1 PUSH1 0xA0 SHL SUB AND CALLER EQ PUSH2 0xCE7 JUMPI PUSH1 0x40 MLOAD PUSH3 0x461BCD PUSH1 0xE5 SHL DUP2 MSTORE PUSH1 0x20 PUSH1 0x4 DUP3 ADD MSTORE PUSH1 0x16 PUSH1 0x24 DUP3 ADD MSTORE PUSH22 0x13DB9B1E4818DB1A595B9D0818D85B8818D85B98D95B PUSH1 0x52 SHL PUSH1 0x44 DUP3 ADD MSTORE PUSH1 0x64 ADD PUSH2 0x4C1 JUMP JUMPDEST PUSH1 0x0 PUSH1 0x6 DUP1 DUP4 ADD SLOAD PUSH1 0xFF AND SWAP1 DUP2 GT ISZERO PUSH2 0xD02 JUMPI PUSH2 0xD02 PUSH2 0x1C25 JUMP JUMPDEST EQ PUSH2 0xD4F JUMPI PUSH1 0x40 MLOAD PUSH3 0x461BCD PUSH1 0xE5 SHL DUP2 MSTORE PUSH1 0x20 PUSH1 0x4 DUP3 ADD MSTORE PUSH1 0x1D PUSH1 0x24 DUP3 ADD MSTORE PUSH32 0x43616E206F6E6C792063616E63656C20756E66756E6465642067696773000000 PUSH1 0x44 DUP3 ADD MSTORE PUSH1 0x64 ADD PUSH2 0x4C1 JUMP JUMPDEST PUSH1 0x6 DUP2 ADD DUP1 SLOAD PUSH1 0xFF NOT AND PUSH1 0x5 OR SWAP1 SSTORE PUSH1 0x40 MLOAD DUP3 SWAP1 PUSH32 0xED32A7868DD1701D125217F8867209CBB1C23F3CD6D044309A73D56B6C647024 SWAP1 PUSH1 0x0 SWAP1 LOG2 POP POP JUMP JUMPDEST PUSH1 0x2 PUSH1 0x20 DUP2 SWAP1 MSTORE PUSH1 0x0 SWAP2 DUP3 MSTORE PUSH1 0x40 SWAP1 SWAP2 KECCAK256 DUP1 SLOAD PUSH1 0x1 DUP3 ADD SLOAD SWAP3 DUP3 ADD SLOAD PUSH1 0x3 DUP4 ADD SLOAD PUSH1 0x4 DUP5 ADD SLOAD PUSH1 0x5 DUP6 ADD SLOAD PUSH1 0x6 DUP7 ADD SLOAD PUSH1 0x7 DUP8 ADD DUP1 SLOAD SWAP7 SWAP9 PUSH1 0x1 PUSH1 0x1 PUSH1 0xA0 SHL SUB SWAP1 DUP2 AND SWAP9 SWAP7 DUP2 AND SWAP8 SWAP6 AND SWAP6 SWAP4 SWAP5 SWAP3 SWAP4 PUSH1 0xFF SWAP1 SWAP3 AND SWAP3 PUSH2 0xDEB SWAP1 PUSH2 0x1E3A JUMP JUMPDEST DUP1 PUSH1 0x1F ADD PUSH1 0x20 DUP1 SWAP2 DIV MUL PUSH1 0x20 ADD PUSH1 0x40 MLOAD SWAP1 DUP2 ADD PUSH1 0x40 MSTORE DUP1 SWAP3 SWAP2 SWAP1 DUP2 DUP2 MSTORE PUSH1 0x20 ADD DUP3 DUP1 SLOAD PUSH2 0xE17 SWAP1 PUSH2 0x1E3A JUMP JUMPDEST DUP1 ISZERO PUSH2 0xE64 JUMPI DUP1 PUSH1 0x1F LT PUSH2 0xE39 JUMPI PUSH2 0x100 DUP1 DUP4 SLOAD DIV MUL DUP4 MSTORE SWAP2 PUSH1 0x20 ADD SWAP2 PUSH2 0xE64 JUMP JUMPDEST DUP3 ADD SWAP2 SWAP1 PUSH1 0x0 MSTORE PUSH1 0x20 PUSH1 0x0 KECCAK256 SWAP1 JUMPDEST DUP2 SLOAD DUP2 MSTORE SWAP1 PUSH1 0x1 ADD SWAP1 PUSH1 0x20 ADD DUP1 DUP4 GT PUSH2 0xE47 JUMPI DUP3 SWAP1 SUB PUSH1 0x1F AND DUP3 ADD SWAP2 JUMPDEST POP POP POP POP POP SWAP1 DUP1 PUSH1 0x8 ADD SLOAD SWAP1 DUP1 PUSH1 0x9 ADD SLOAD SWAP1 DUP1 PUSH1 0xA ADD SLOAD SWAP1 POP DUP12 JUMP JUMPDEST PUSH1 0x1 PUSH1 0x1 PUSH1 0xA0 SHL SUB DUP2 AND PUSH1 0x0 SWAP1 DUP2 MSTORE PUSH1 0x4 PUSH1 0x20 SWAP1 DUP2 MSTORE PUSH1 0x40 SWAP2 DUP3 SWAP1 KECCAK256 DUP1 SLOAD DUP4 MLOAD DUP2 DUP5 MUL DUP2 ADD DUP5 ADD SWAP1 SWAP5 MSTORE DUP1 DUP5 MSTORE PUSH1 0x60 SWAP4 SWAP3 DUP4 ADD DUP3 DUP3 DUP1 ISZERO PUSH2 0xC57 JUMPI PUSH1 0x20 MUL DUP3 ADD SWAP2 SWAP1 PUSH1 0x0 MSTORE PUSH1 0x20 PUSH1 0x0 KECCAK256 SWAP1 DUP2 SLOAD DUP2 MSTORE PUSH1 0x20 ADD SWAP1 PUSH1 0x1 ADD SWAP1 DUP1 DUP4 GT PUSH2 0xC43 JUMPI POP POP POP POP POP SWAP1 POP SWAP2 SWAP1 POP JUMP JUMPDEST PUSH2 0xEF2 PUSH2 0x1682 JUMP JUMPDEST PUSH1 0x0 DUP2 DUP2 MSTORE PUSH1 0x2 PUSH1 0x20 MSTORE PUSH1 0x40 DUP2 KECCAK256 DUP1 SLOAD SWAP1 SWAP2 SUB PUSH2 0xF21 JUMPI PUSH1 0x40 MLOAD PUSH3 0x461BCD PUSH1 0xE5 SHL DUP2 MSTORE PUSH1 0x4 ADD PUSH2 0x4C1 SWAP1 PUSH2 0x1F82 JUMP JUMPDEST PUSH1 0x1 DUP2 ADD SLOAD PUSH1 0x1 PUSH1 0x1 PUSH1 0xA0 SHL SUB AND CALLER EQ PUSH2 0xF74 JUMPI PUSH1 0x40 MLOAD PUSH3 0x461BCD PUSH1 0xE5 SHL DUP2 MSTORE PUSH1 0x20 PUSH1 0x4 DUP3 ADD MSTORE PUSH1 0x14 PUSH1 0x24 DUP3 ADD MSTORE PUSH20 0x13DB9B1E4818DB1A595B9D0818D85B88199D5B99 PUSH1 0x62 SHL PUSH1 0x44 DUP3 ADD MSTORE PUSH1 0x64 ADD PUSH2 0x4C1 JUMP JUMPDEST PUSH1 0x0 PUSH1 0x6 DUP1 DUP4 ADD SLOAD PUSH1 0xFF AND SWAP1 DUP2 GT ISZERO PUSH2 0xF8F JUMPI PUSH2 0xF8F PUSH2 0x1C25 JUMP JUMPDEST EQ PUSH2 0xFD1 JUMPI PUSH1 0x40 MLOAD PUSH3 0x461BCD PUSH1 0xE5 SHL DUP2 MSTORE PUSH1 0x20 PUSH1 0x4 DUP3 ADD MSTORE PUSH1 0x12 PUSH1 0x24 DUP3 ADD MSTORE PUSH18 0x11DA59C8185B1C9958591E48199D5B991959 PUSH1 0x72 SHL PUSH1 0x44 DUP3 ADD MSTORE PUSH1 0x64 ADD PUSH2 0x4C1 JUMP JUMPDEST PUSH1 0x3 DUP2 ADD SLOAD PUSH1 0x4 DUP1 DUP4 ADD SLOAD PUSH1 0x40 MLOAD PUSH4 0x70A08231 PUSH1 0xE0 SHL DUP2 MSTORE CALLER SWAP3 DUP2 ADD SWAP3 SWAP1 SWAP3 MSTORE PUSH1 0x1 PUSH1 0x1 PUSH1 0xA0 SHL SUB SWAP1 SWAP3 AND SWAP2 SWAP1 DUP3 SWAP1 PUSH4 0x70A08231 SWAP1 PUSH1 0x24 ADD PUSH1 0x20 PUSH1 0x40 MLOAD DUP1 DUP4 SUB DUP2 DUP7 GAS STATICCALL ISZERO DUP1 ISZERO PUSH2 0x1026 JUMPI RETURNDATASIZE PUSH1 0x0 DUP1 RETURNDATACOPY RETURNDATASIZE PUSH1 0x0 REVERT JUMPDEST POP POP POP POP PUSH1 0x40 MLOAD RETURNDATASIZE PUSH1 0x1F NOT PUSH1 0x1F DUP3 ADD AND DUP3 ADD DUP1 PUSH1 0x40 MSTORE POP DUP2 ADD SWAP1 PUSH2 0x104A SWAP2 SWAP1 PUSH2 0x1FAE JUMP JUMPDEST LT ISZERO PUSH2 0x108F JUMPI PUSH1 0x40 MLOAD PUSH3 0x461BCD PUSH1 0xE5 SHL DUP2 MSTORE PUSH1 0x20 PUSH1 0x4 DUP3 ADD MSTORE PUSH1 0x14 PUSH1 0x24 DUP3 ADD MSTORE PUSH20 0x496E73756666696369656E742062616C616E6365 PUSH1 0x60 SHL PUSH1 0x44 DUP3 ADD MSTORE PUSH1 0x64 ADD PUSH2 0x4C1 JUMP JUMPDEST PUSH1 0x6 DUP3 ADD DUP1 SLOAD PUSH1 0xFF NOT AND PUSH1 0x1 OR SWAP1 SSTORE TIMESTAMP PUSH1 0x9 DUP4 ADD SSTORE PUSH1 0x4 DUP3 ADD SLOAD PUSH2 0x10C1 SWAP1 PUSH1 0x1 PUSH1 0x1 PUSH1 0xA0 SHL SUB DUP4 AND SWAP1 CALLER SWAP1 ADDRESS SWAP1 PUSH2 0x18BB JUMP JUMPDEST DUP3 PUSH32 0xBF2C8AB5D55B8D8031B89556D55A3217F24046A98B4F5F510BBF8423CE238A8A DUP4 PUSH1 0x4 ADD SLOAD PUSH1 0x40 MLOAD PUSH2 0x10F7 SWAP2 DUP2 MSTORE PUSH1 0x20 ADD SWAP1 JUMP JUMPDEST PUSH1 0x40 MLOAD DUP1 SWAP2 SUB SWAP1 LOG2 POP POP PUSH2 0xBF4 PUSH1 0x1 PUSH1 0x0 DUP1 MLOAD PUSH1 0x20 PUSH2 0x2027 DUP4 CODECOPY DUP2 MLOAD SWAP2 MSTORE SSTORE JUMP JUMPDEST PUSH1 0x0 SWAP2 DUP3 MSTORE PUSH1 0x20 DUP3 DUP2 MSTORE PUSH1 0x40 DUP1 DUP5 KECCAK256 PUSH1 0x1 PUSH1 0x1 PUSH1 0xA0 SHL SUB SWAP4 SWAP1 SWAP4 AND DUP5 MSTORE SWAP2 SWAP1 MSTORE SWAP1 KECCAK256 SLOAD PUSH1 0xFF AND SWAP1 JUMP JUMPDEST PUSH1 0x3 PUSH1 0x20 MSTORE DUP2 PUSH1 0x0 MSTORE PUSH1 0x40 PUSH1 0x0 KECCAK256 DUP2 DUP2 SLOAD DUP2 LT PUSH2 0x115D JUMPI PUSH1 0x0 DUP1 REVERT JUMPDEST SWAP1 PUSH1 0x0 MSTORE PUSH1 0x20 PUSH1 0x0 KECCAK256 ADD PUSH1 0x0 SWAP2 POP SWAP2 POP POP SLOAD DUP2 JUMP JUMPDEST PUSH32 0xA49807205CE4D355092EF5A8A18F56E8913CF4A201FBE287825B095693C21775 PUSH2 0x119C DUP2 PUSH2 0x1678 JUMP JUMPDEST PUSH1 0x1 PUSH1 0x1 PUSH1 0xA0 SHL SUB DUP3 AND PUSH2 0x11E4 JUMPI PUSH1 0x40 MLOAD PUSH3 0x461BCD PUSH1 0xE5 SHL DUP2 MSTORE PUSH1 0x20 PUSH1 0x4 DUP3 ADD MSTORE PUSH1 0xF PUSH1 0x24 DUP3 ADD MSTORE PUSH15 0x496E76616C69642061646472657373 PUSH1 0x88 SHL PUSH1 0x44 DUP3 ADD MSTORE PUSH1 0x64 ADD PUSH2 0x4C1 JUMP JUMPDEST POP PUSH1 0x6 DUP1 SLOAD PUSH1 0x1 PUSH1 0x1 PUSH1 0xA0 SHL SUB NOT AND PUSH1 0x1 PUSH1 0x1 PUSH1 0xA0 SHL SUB SWAP3 SWAP1 SWAP3 AND SWAP2 SWAP1 SWAP2 OR SWAP1 SSTORE JUMP JUMPDEST PUSH1 0x0 DUP2 DUP2 MSTORE PUSH1 0x2 PUSH1 0x20 MSTORE PUSH1 0x40 DUP2 KECCAK256 DUP1 SLOAD SWAP1 SWAP2 SUB PUSH2 0x1236 JUMPI PUSH1 0x40 MLOAD PUSH3 0x461BCD PUSH1 0xE5 SHL DUP2 MSTORE PUSH1 0x4 ADD PUSH2 0x4C1 SWAP1 PUSH2 0x1F82 JUMP JUMPDEST PUSH1 0x1 DUP2 ADD SLOAD PUSH1 0x1 PUSH1 0x1 PUSH1 0xA0 SHL SUB AND CALLER EQ DUP1 PUSH2 0x125D JUMPI POP PUSH1 0x2 DUP2 ADD SLOAD PUSH1 0x1 PUSH1 0x1 PUSH1 0xA0 SHL SUB AND CALLER EQ JUMPDEST PUSH2 0x129A JUMPI PUSH1 0x40 MLOAD PUSH3 0x461BCD PUSH1 0xE5 SHL DUP2 MSTORE PUSH1 0x20 PUSH1 0x4 DUP3 ADD MSTORE PUSH1 0xE PUSH1 0x24 DUP3 ADD MSTORE PUSH14 0x139BDD08185D5D1A1BDC9A5E9959 PUSH1 0x92 SHL PUSH1 0x44 DUP3 ADD MSTORE PUSH1 0x64 ADD PUSH2 0x4C1 JUMP JUMPDEST PUSH1 0x1 PUSH1 0x6 DUP1 DUP4 ADD SLOAD PUSH1 0xFF AND SWAP1 DUP2 GT ISZERO PUSH2 0x12B5 JUMPI PUSH2 0x12B5 PUSH2 0x1C25 JUMP JUMPDEST EQ DUP1 PUSH2 0x12D9 JUMPI POP PUSH1 0x2 PUSH1 0x6 DUP1 DUP4 ADD SLOAD PUSH1 0xFF AND SWAP1 DUP2 GT ISZERO PUSH2 0x12D7 JUMPI PUSH2 0x12D7 PUSH2 0x1C25 JUMP JUMPDEST EQ JUMPDEST PUSH2 0x1325 JUMPI PUSH1 0x40 MLOAD PUSH3 0x461BCD PUSH1 0xE5 SHL DUP2 MSTORE PUSH1 0x20 PUSH1 0x4 DUP3 ADD MSTORE PUSH1 0x1C PUSH1 0x24 DUP3 ADD MSTORE PUSH32 0x43616E6E6F742064697370757465206174207468697320737461676500000000 PUSH1 0x44 DUP3 ADD MSTORE PUSH1 0x64 ADD PUSH2 0x4C1 JUMP JUMPDEST PUSH1 0x6 DUP2 ADD DUP1 SLOAD PUSH1 0xFF NOT AND PUSH1 0x4 OR SWAP1 SSTORE PUSH1 0x40 MLOAD CALLER SWAP1 DUP4 SWAP1 PUSH32 0x4692503F78893DFEFD71EDDA8FFB8C490C3A203607B5CBAA7E7585A5B3EFE8D0 SWAP1 PUSH1 0x0 SWAP1 LOG3 POP POP JUMP JUMPDEST PUSH2 0x13C2 PUSH1 0x40 DUP1 MLOAD PUSH2 0x160 DUP2 ADD DUP3 MSTORE PUSH1 0x0 DUP1 DUP3 MSTORE PUSH1 0x20 DUP3 ADD DUP2 SWAP1 MSTORE SWAP2 DUP2 ADD DUP3 SWAP1 MSTORE PUSH1 0x60 DUP2 ADD DUP3 SWAP1 MSTORE PUSH1 0x80 DUP2 ADD DUP3 SWAP1 MSTORE PUSH1 0xA0 DUP2 ADD DUP3 SWAP1 MSTORE SWAP1 PUSH1 0xC0 DUP3 ADD SWAP1 DUP2 MSTORE PUSH1 0x20 ADD PUSH1 0x60 DUP2 MSTORE PUSH1 0x20 ADD PUSH1 0x0 DUP2 MSTORE PUSH1 0x20 ADD PUSH1 0x0 DUP2 MSTORE PUSH1 0x20 ADD PUSH1 0x0 DUP2 MSTORE POP SWAP1 JUMP JUMPDEST PUSH1 0x0 DUP3 DUP2 MSTORE PUSH1 0x2 PUSH1 0x20 DUP2 DUP2 MSTORE PUSH1 0x40 SWAP3 DUP4 SWAP1 KECCAK256 DUP4 MLOAD PUSH2 0x160 DUP2 ADD DUP6 MSTORE DUP2 SLOAD DUP2 MSTORE PUSH1 0x1 DUP3 ADD SLOAD PUSH1 0x1 PUSH1 0x1 PUSH1 0xA0 SHL SUB SWAP1 DUP2 AND SWAP4 DUP3 ADD SWAP4 SWAP1 SWAP4 MSTORE SWAP3 DUP2 ADD SLOAD DUP3 AND SWAP4 DUP4 ADD SWAP4 SWAP1 SWAP4 MSTORE PUSH1 0x3 DUP4 ADD SLOAD AND PUSH1 0x60 DUP3 ADD MSTORE PUSH1 0x4 DUP3 ADD SLOAD PUSH1 0x80 DUP3 ADD MSTORE PUSH1 0x5 DUP3 ADD SLOAD PUSH1 0xA0 DUP3 ADD MSTORE PUSH1 0x6 DUP1 DUP4 ADD SLOAD SWAP2 SWAP3 SWAP2 PUSH1 0xC0 DUP5 ADD SWAP2 PUSH1 0xFF SWAP1 SWAP2 AND SWAP1 DUP2 GT ISZERO PUSH2 0x1447 JUMPI PUSH2 0x1447 PUSH2 0x1C25 JUMP JUMPDEST PUSH1 0x6 DUP2 GT ISZERO PUSH2 0x1458 JUMPI PUSH2 0x1458 PUSH2 0x1C25 JUMP JUMPDEST DUP2 MSTORE PUSH1 0x20 ADD PUSH1 0x7 DUP3 ADD DUP1 SLOAD PUSH2 0x146C SWAP1 PUSH2 0x1E3A JUMP JUMPDEST DUP1 PUSH1 0x1F ADD PUSH1 0x20 DUP1 SWAP2 DIV MUL PUSH1 0x20 ADD PUSH1 0x40 MLOAD SWAP1 DUP2 ADD PUSH1 0x40 MSTORE DUP1 SWAP3 SWAP2 SWAP1 DUP2 DUP2 MSTORE PUSH1 0x20 ADD DUP3 DUP1 SLOAD PUSH2 0x1498 SWAP1 PUSH2 0x1E3A JUMP JUMPDEST DUP1 ISZERO PUSH2 0x14E5 JUMPI DUP1 PUSH1 0x1F LT PUSH2 0x14BA JUMPI PUSH2 0x100 DUP1 DUP4 SLOAD DIV MUL DUP4 MSTORE SWAP2 PUSH1 0x20 ADD SWAP2 PUSH2 0x14E5 JUMP JUMPDEST DUP3 ADD SWAP2 SWAP1 PUSH1 0x0 MSTORE PUSH1 0x20 PUSH1 0x0 KECCAK256 SWAP1 JUMPDEST DUP2 SLOAD DUP2 MSTORE SWAP1 PUSH1 0x1 ADD SWAP1 PUSH1 0x20 ADD DUP1 DUP4 GT PUSH2 0x14C8 JUMPI DUP3 SWAP1 SUB PUSH1 0x1F AND DUP3 ADD SWAP2 JUMPDEST POP POP POP POP POP DUP2 MSTORE PUSH1 0x20 ADD PUSH1 0x8 DUP3 ADD SLOAD DUP2 MSTORE PUSH1 0x20 ADD PUSH1 0x9 DUP3 ADD SLOAD DUP2 MSTORE PUSH1 0x20 ADD PUSH1 0xA DUP3 ADD SLOAD DUP2 MSTORE POP POP SWAP1 POP SWAP2 SWAP1 POP JUMP JUMPDEST PUSH1 0x0 DUP2 DUP2 MSTORE PUSH1 0x2 PUSH1 0x20 MSTORE PUSH1 0x40 DUP2 KECCAK256 DUP1 SLOAD SWAP1 SWAP2 SUB PUSH2 0x1542 JUMPI PUSH1 0x40 MLOAD PUSH3 0x461BCD PUSH1 0xE5 SHL DUP2 MSTORE PUSH1 0x4 ADD PUSH2 0x4C1 SWAP1 PUSH2 0x1F82 JUMP JUMPDEST PUSH1 0x2 DUP2 ADD SLOAD PUSH1 0x1 PUSH1 0x1 PUSH1 0xA0 SHL SUB AND CALLER EQ PUSH2 0x159E JUMPI PUSH1 0x40 MLOAD PUSH3 0x461BCD PUSH1 0xE5 SHL DUP2 MSTORE PUSH1 0x20 PUSH1 0x4 DUP3 ADD MSTORE PUSH1 0x1A PUSH1 0x24 DUP3 ADD MSTORE PUSH32 0x4F6E6C7920667265656C616E6365722063616E207375626D6974000000000000 PUSH1 0x44 DUP3 ADD MSTORE PUSH1 0x64 ADD PUSH2 0x4C1 JUMP JUMPDEST PUSH1 0x1 PUSH1 0x6 DUP1 DUP4 ADD SLOAD PUSH1 0xFF AND SWAP1 DUP2 GT ISZERO PUSH2 0x15B9 JUMPI PUSH2 0x15B9 PUSH2 0x1C25 JUMP JUMPDEST EQ PUSH2 0x15F7 JUMPI PUSH1 0x40 MLOAD PUSH3 0x461BCD PUSH1 0xE5 SHL DUP2 MSTORE PUSH1 0x20 PUSH1 0x4 DUP3 ADD MSTORE PUSH1 0xE PUSH1 0x24 DUP3 ADD MSTORE PUSH14 0x11DA59C81B9BDD08199D5B991959 PUSH1 0x92 SHL PUSH1 0x44 DUP3 ADD MSTORE PUSH1 0x64 ADD PUSH2 0x4C1 JUMP JUMPDEST PUSH1 0x6 DUP2 ADD DUP1 SLOAD PUSH1 0xFF NOT AND PUSH1 0x2 OR SWAP1 SSTORE PUSH1 0x40 MLOAD CALLER SWAP1 DUP4 SWAP1 PUSH32 0x2E1034180F85502B3A04560BE6ED4C24FE9B9C9E0BD7F4E09720494AC48859FA SWAP1 PUSH1 0x0 SWAP1 LOG3 POP POP JUMP JUMPDEST PUSH1 0x0 DUP3 DUP2 MSTORE PUSH1 0x20 DUP2 SWAP1 MSTORE PUSH1 0x40 SWAP1 KECCAK256 PUSH1 0x1 ADD SLOAD PUSH2 0x1652 DUP2 PUSH2 0x1678 JUMP JUMPDEST PUSH2 0xA72 DUP4 DUP4 PUSH2 0x1850 JUMP JUMPDEST PUSH1 0x4 PUSH1 0x20 MSTORE DUP2 PUSH1 0x0 MSTORE PUSH1 0x40 PUSH1 0x0 KECCAK256 DUP2 DUP2 SLOAD DUP2 LT PUSH2 0x115D JUMPI PUSH1 0x0 DUP1 REVERT JUMPDEST PUSH2 0xBF4 DUP2 CALLER PUSH2 0x18F1 JUMP JUMPDEST PUSH2 0x168A PUSH2 0x192E JUMP JUMPDEST PUSH1 0x2 PUSH1 0x0 DUP1 MLOAD PUSH1 0x20 PUSH2 0x2027 DUP4 CODECOPY DUP2 MLOAD SWAP2 MSTORE SSTORE JUMP JUMPDEST PUSH1 0x0 DUP2 DUP2 MSTORE PUSH1 0x2 PUSH1 0x20 MSTORE PUSH1 0x40 DUP2 KECCAK256 PUSH1 0x3 DUP2 ADD SLOAD PUSH1 0x5 SLOAD PUSH1 0x4 DUP4 ADD SLOAD SWAP3 SWAP4 PUSH1 0x1 PUSH1 0x1 PUSH1 0xA0 SHL SUB SWAP1 SWAP3 AND SWAP3 PUSH2 0x2710 SWAP2 PUSH2 0x16D4 SWAP2 PUSH2 0x1FC7 JUMP JUMPDEST PUSH2 0x16DE SWAP2 SWAP1 PUSH2 0x1FDE JUMP JUMPDEST SWAP1 POP PUSH1 0x0 DUP2 DUP5 PUSH1 0x4 ADD SLOAD PUSH2 0x16F2 SWAP2 SWAP1 PUSH2 0x2000 JUMP JUMPDEST SWAP1 POP DUP2 PUSH1 0x7 PUSH1 0x0 DUP3 DUP3 SLOAD PUSH2 0x1706 SWAP2 SWAP1 PUSH2 0x2013 JUMP JUMPDEST SWAP1 SWAP2 SSTORE POP POP PUSH1 0x2 DUP5 ADD SLOAD PUSH2 0x1727 SWAP1 PUSH1 0x1 PUSH1 0x1 PUSH1 0xA0 SHL SUB DUP6 DUP2 AND SWAP2 AND DUP4 PUSH2 0x1789 JUMP JUMPDEST DUP2 ISZERO PUSH2 0x1747 JUMPI PUSH1 0x6 SLOAD PUSH2 0x1747 SWAP1 PUSH1 0x1 PUSH1 0x1 PUSH1 0xA0 SHL SUB DUP6 DUP2 AND SWAP2 AND DUP5 PUSH2 0x1789 JUMP JUMPDEST PUSH1 0x40 DUP1 MLOAD DUP3 DUP2 MSTORE PUSH1 0x20 DUP2 ADD DUP5 SWAP1 MSTORE DUP7 SWAP2 PUSH32 0xD50431560FFA04836C47148DDFDF891200B444DF35679B9CF2B4E08A2143BFA2 SWAP2 ADD PUSH1 0x40 MLOAD DUP1 SWAP2 SUB SWAP1 LOG2 POP POP POP POP POP JUMP JUMPDEST PUSH2 0x1796 DUP4 DUP4 DUP4 PUSH1 0x1 PUSH2 0x1960 JUMP JUMPDEST PUSH2 0x998 JUMPI PUSH1 0x40 MLOAD PUSH4 0x5274AFE7 PUSH1 0xE0 SHL DUP2 MSTORE PUSH1 0x1 PUSH1 0x1 PUSH1 0xA0 SHL SUB DUP5 AND PUSH1 0x4 DUP3 ADD MSTORE PUSH1 0x24 ADD PUSH2 0x4C1 JUMP JUMPDEST PUSH1 0x0 PUSH2 0x17CA DUP4 DUP4 PUSH2 0x1118 JUMP JUMPDEST PUSH2 0x1848 JUMPI PUSH1 0x0 DUP4 DUP2 MSTORE PUSH1 0x20 DUP2 DUP2 MSTORE PUSH1 0x40 DUP1 DUP4 KECCAK256 PUSH1 0x1 PUSH1 0x1 PUSH1 0xA0 SHL SUB DUP7 AND DUP5 MSTORE SWAP1 SWAP2 MSTORE SWAP1 KECCAK256 DUP1 SLOAD PUSH1 0xFF NOT AND PUSH1 0x1 OR SWAP1 SSTORE PUSH2 0x1800 CALLER SWAP1 JUMP JUMPDEST PUSH1 0x1 PUSH1 0x1 PUSH1 0xA0 SHL SUB AND DUP3 PUSH1 0x1 PUSH1 0x1 PUSH1 0xA0 SHL SUB AND DUP5 PUSH32 0x2F8788117E7EFF1D82E926EC794901D17C78024A50270940304540A733656F0D PUSH1 0x40 MLOAD PUSH1 0x40 MLOAD DUP1 SWAP2 SUB SWAP1 LOG4 POP PUSH1 0x1 PUSH2 0x467 JUMP JUMPDEST POP PUSH1 0x0 PUSH2 0x467 JUMP JUMPDEST PUSH1 0x0 PUSH2 0x185C DUP4 DUP4 PUSH2 0x1118 JUMP JUMPDEST ISZERO PUSH2 0x1848 JUMPI PUSH1 0x0 DUP4 DUP2 MSTORE PUSH1 0x20 DUP2 DUP2 MSTORE PUSH1 0x40 DUP1 DUP4 KECCAK256 PUSH1 0x1 PUSH1 0x1 PUSH1 0xA0 SHL SUB DUP7 AND DUP1 DUP6 MSTORE SWAP3 MSTORE DUP1 DUP4 KECCAK256 DUP1 SLOAD PUSH1 0xFF NOT AND SWAP1 SSTORE MLOAD CALLER SWAP3 DUP7 SWAP2 PUSH32 0xF6391F5C32D9C69D2A47EA670B442974B53935D1EDC7FD64EB21E047A839171B SWAP2 SWAP1 LOG4 POP PUSH1 0x1 PUSH2 0x467 JUMP JUMPDEST PUSH2 0x18C9 DUP5 DUP5 DUP5 DUP5 PUSH1 0x1 PUSH2 0x19C6 JUMP JUMPDEST PUSH2 0xA72 JUMPI PUSH1 0x40 MLOAD PUSH4 0x5274AFE7 PUSH1 0xE0 SHL DUP2 MSTORE PUSH1 0x1 PUSH1 0x1 PUSH1 0xA0 SHL SUB DUP6 AND PUSH1 0x4 DUP3 ADD MSTORE PUSH1 0x24 ADD PUSH2 0x4C1 JUMP JUMPDEST PUSH2 0x18FB DUP3 DUP3 PUSH2 0x1118 JUMP JUMPDEST PUSH2 0x192A JUMPI PUSH1 0x40 MLOAD PUSH4 0xE2517D3F PUSH1 0xE0 SHL DUP2 MSTORE PUSH1 0x1 PUSH1 0x1 PUSH1 0xA0 SHL SUB DUP3 AND PUSH1 0x4 DUP3 ADD MSTORE PUSH1 0x24 DUP2 ADD DUP4 SWAP1 MSTORE PUSH1 0x44 ADD PUSH2 0x4C1 JUMP JUMPDEST POP POP JUMP JUMPDEST PUSH1 0x0 DUP1 MLOAD PUSH1 0x20 PUSH2 0x2027 DUP4 CODECOPY DUP2 MLOAD SWAP2 MSTORE SLOAD PUSH1 0x2 SUB PUSH2 0x195E JUMPI PUSH1 0x40 MLOAD PUSH4 0x3EE5AEB5 PUSH1 0xE0 SHL DUP2 MSTORE PUSH1 0x4 ADD PUSH1 0x40 MLOAD DUP1 SWAP2 SUB SWAP1 REVERT JUMPDEST JUMP JUMPDEST PUSH1 0x40 MLOAD PUSH4 0xA9059CBB PUSH1 0xE0 SHL PUSH1 0x0 DUP2 DUP2 MSTORE PUSH1 0x1 PUSH1 0x1 PUSH1 0xA0 SHL SUB DUP7 AND PUSH1 0x4 MSTORE PUSH1 0x24 DUP6 SWAP1 MSTORE SWAP2 PUSH1 0x20 DUP4 PUSH1 0x44 DUP2 DUP1 DUP12 GAS CALL SWAP3 POP PUSH1 0x1 PUSH1 0x0 MLOAD EQ DUP4 AND PUSH2 0x19BA JUMPI DUP4 DUP4 ISZERO AND ISZERO PUSH2 0x19AD JUMPI RETURNDATASIZE PUSH1 0x0 DUP3 RETURNDATACOPY RETURNDATASIZE DUP2 REVERT JUMPDEST PUSH1 0x0 DUP8 EXTCODESIZE GT RETURNDATASIZE ISZERO AND DUP4 AND SWAP3 POP JUMPDEST PUSH1 0x40 MSTORE POP SWAP5 SWAP4 POP POP POP POP JUMP JUMPDEST PUSH1 0x40 MLOAD PUSH4 0x23B872DD PUSH1 0xE0 SHL PUSH1 0x0 DUP2 DUP2 MSTORE PUSH1 0x1 PUSH1 0x1 PUSH1 0xA0 SHL SUB DUP8 DUP2 AND PUSH1 0x4 MSTORE DUP7 AND PUSH1 0x24 MSTORE PUSH1 0x44 DUP6 SWAP1 MSTORE SWAP2 PUSH1 0x20 DUP4 PUSH1 0x64 DUP2 DUP1 DUP13 GAS CALL SWAP3 POP PUSH1 0x1 PUSH1 0x0 MLOAD EQ DUP4 AND PUSH2 0x1A26 JUMPI DUP4 DUP4 ISZERO AND ISZERO PUSH2 0x1A19 JUMPI RETURNDATASIZE PUSH1 0x0 DUP3 RETURNDATACOPY RETURNDATASIZE DUP2 REVERT JUMPDEST PUSH1 0x0 DUP9 EXTCODESIZE GT RETURNDATASIZE ISZERO AND DUP4 AND SWAP3 POP JUMPDEST PUSH1 0x40 MSTORE POP PUSH1 0x0 PUSH1 0x60 MSTORE SWAP6 SWAP5 POP POP POP POP POP JUMP JUMPDEST PUSH1 0x0 PUSH1 0x20 DUP3 DUP5 SUB SLT ISZERO PUSH2 0x1A4A JUMPI PUSH1 0x0 DUP1 REVERT JUMPDEST DUP2 CALLDATALOAD PUSH1 0x1 PUSH1 0x1 PUSH1 0xE0 SHL SUB NOT DUP2 AND DUP2 EQ PUSH2 0x1A62 JUMPI PUSH1 0x0 DUP1 REVERT JUMPDEST SWAP4 SWAP3 POP POP POP JUMP JUMPDEST DUP1 CALLDATALOAD PUSH1 0x1 PUSH1 0x1 PUSH1 0xA0 SHL SUB DUP2 AND DUP2 EQ PUSH2 0x1A80 JUMPI PUSH1 0x0 DUP1 REVERT JUMPDEST SWAP2 SWAP1 POP JUMP JUMPDEST PUSH4 0x4E487B71 PUSH1 0xE0 SHL PUSH1 0x0 MSTORE PUSH1 0x41 PUSH1 0x4 MSTORE PUSH1 0x24 PUSH1 0x0 REVERT JUMPDEST PUSH1 0x0 DUP1 PUSH1 0x0 DUP1 PUSH1 0x0 PUSH1 0xA0 DUP7 DUP9 SUB SLT ISZERO PUSH2 0x1AB3 JUMPI PUSH1 0x0 DUP1 REVERT JUMPDEST PUSH2 0x1ABC DUP7 PUSH2 0x1A69 JUMP JUMPDEST SWAP5 POP PUSH2 0x1ACA PUSH1 0x20 DUP8 ADD PUSH2 0x1A69 JUMP JUMPDEST SWAP4 POP PUSH1 0x40 DUP7 ADD CALLDATALOAD SWAP3 POP PUSH1 0x60 DUP7 ADD CALLDATALOAD SWAP2 POP PUSH1 0x80 DUP7 ADD CALLDATALOAD PUSH8 0xFFFFFFFFFFFFFFFF DUP1 DUP3 GT ISZERO PUSH2 0x1AF5 JUMPI PUSH1 0x0 DUP1 REVERT JUMPDEST DUP2 DUP9 ADD SWAP2 POP DUP9 PUSH1 0x1F DUP4 ADD SLT PUSH2 0x1B09 JUMPI PUSH1 0x0 DUP1 REVERT JUMPDEST DUP2 CALLDATALOAD DUP2 DUP2 GT ISZERO PUSH2 0x1B1B JUMPI PUSH2 0x1B1B PUSH2 0x1A85 JUMP JUMPDEST PUSH1 0x40 MLOAD PUSH1 0x1F DUP3 ADD PUSH1 0x1F NOT SWAP1 DUP2 AND PUSH1 0x3F ADD AND DUP2 ADD SWAP1 DUP4 DUP3 GT DUP2 DUP4 LT OR ISZERO PUSH2 0x1B43 JUMPI PUSH2 0x1B43 PUSH2 0x1A85 JUMP JUMPDEST DUP2 PUSH1 0x40 MSTORE DUP3 DUP2 MSTORE DUP12 PUSH1 0x20 DUP5 DUP8 ADD ADD GT ISZERO PUSH2 0x1B5C JUMPI PUSH1 0x0 DUP1 REVERT JUMPDEST DUP3 PUSH1 0x20 DUP7 ADD PUSH1 0x20 DUP4 ADD CALLDATACOPY PUSH1 0x0 PUSH1 0x20 DUP5 DUP4 ADD ADD MSTORE DUP1 SWAP6 POP POP POP POP POP POP SWAP3 SWAP6 POP SWAP3 SWAP6 SWAP1 SWAP4 POP JUMP JUMPDEST PUSH1 0x0 DUP1 PUSH1 0x40 DUP4 DUP6 SUB SLT ISZERO PUSH2 0x1B94 JUMPI PUSH1 0x0 DUP1 REVERT JUMPDEST DUP3 CALLDATALOAD SWAP2 POP PUSH2 0x1BA4 PUSH1 0x20 DUP5 ADD PUSH2 0x1A69 JUMP JUMPDEST SWAP1 POP SWAP3 POP SWAP3 SWAP1 POP JUMP JUMPDEST PUSH1 0x0 PUSH1 0x20 DUP3 DUP5 SUB SLT ISZERO PUSH2 0x1BBF JUMPI PUSH1 0x0 DUP1 REVERT JUMPDEST POP CALLDATALOAD SWAP2 SWAP1 POP JUMP JUMPDEST PUSH1 0x0 PUSH1 0x20 DUP3 DUP5 SUB SLT ISZERO PUSH2 0x1BD8 JUMPI PUSH1 0x0 DUP1 REVERT JUMPDEST PUSH2 0x1A62 DUP3 PUSH2 0x1A69 JUMP JUMPDEST PUSH1 0x20 DUP1 DUP3 MSTORE DUP3 MLOAD DUP3 DUP3 ADD DUP2 SWAP1 MSTORE PUSH1 0x0 SWAP2 SWAP1 DUP5 DUP3 ADD SWAP1 PUSH1 0x40 DUP6 ADD SWAP1 DUP5 JUMPDEST DUP2 DUP2 LT ISZERO PUSH2 0x1C19 JUMPI DUP4 MLOAD DUP4 MSTORE SWAP3 DUP5 ADD SWAP3 SWAP2 DUP5 ADD SWAP2 PUSH1 0x1 ADD PUSH2 0x1BFD JUMP JUMPDEST POP SWAP1 SWAP7 SWAP6 POP POP POP POP POP POP JUMP JUMPDEST PUSH4 0x4E487B71 PUSH1 0xE0 SHL PUSH1 0x0 MSTORE PUSH1 0x21 PUSH1 0x4 MSTORE PUSH1 0x24 PUSH1 0x0 REVERT JUMPDEST PUSH1 0x7 DUP2 LT PUSH2 0x1C59 JUMPI PUSH4 0x4E487B71 PUSH1 0xE0 SHL PUSH1 0x0 MSTORE PUSH1 0x21 PUSH1 0x4 MSTORE PUSH1 0x24 PUSH1 0x0 REVERT JUMPDEST SWAP1 MSTORE JUMP JUMPDEST PUSH1 0x0 DUP2 MLOAD DUP1 DUP5 MSTORE PUSH1 0x0 JUMPDEST DUP2 DUP2 LT ISZERO PUSH2 0x1C83 JUMPI PUSH1 0x20 DUP2 DUP6 ADD DUP2 ADD MLOAD DUP7 DUP4 ADD DUP3 ADD MSTORE ADD PUSH2 0x1C67 JUMP JUMPDEST POP PUSH1 0x0 PUSH1 0x20 DUP3 DUP7 ADD ADD MSTORE PUSH1 0x20 PUSH1 0x1F NOT PUSH1 0x1F DUP4 ADD AND DUP6 ADD ADD SWAP2 POP POP SWAP3 SWAP2 POP POP JUMP JUMPDEST DUP12 DUP2 MSTORE PUSH1 0x1 PUSH1 0x1 PUSH1 0xA0 SHL SUB DUP12 DUP2 AND PUSH1 0x20 DUP4 ADD MSTORE DUP11 DUP2 AND PUSH1 0x40 DUP4 ADD MSTORE DUP10 AND PUSH1 0x60 DUP3 ADD MSTORE PUSH1 0x80 DUP2 ADD DUP9 SWAP1 MSTORE PUSH1 0xA0 DUP2 ADD DUP8 SWAP1 MSTORE PUSH1 0x0 PUSH2 0x160 PUSH2 0x1CE5 PUSH1 0xC0 DUP5 ADD DUP10 PUSH2 0x1C3B JUMP JUMPDEST DUP1 PUSH1 0xE0 DUP5 ADD MSTORE PUSH2 0x1CF7 DUP2 DUP5 ADD DUP9 PUSH2 0x1C5D JUMP JUMPDEST PUSH2 0x100 DUP5 ADD SWAP7 SWAP1 SWAP7 MSTORE POP POP PUSH2 0x120 DUP2 ADD SWAP3 SWAP1 SWAP3 MSTORE PUSH2 0x140 SWAP1 SWAP2 ADD MSTORE SWAP9 SWAP8 POP POP POP POP POP POP POP POP JUMP JUMPDEST PUSH1 0x0 DUP1 PUSH1 0x40 DUP4 DUP6 SUB SLT ISZERO PUSH2 0x1D31 JUMPI PUSH1 0x0 DUP1 REVERT JUMPDEST PUSH2 0x1D3A DUP4 PUSH2 0x1A69 JUMP JUMPDEST SWAP5 PUSH1 0x20 SWAP4 SWAP1 SWAP4 ADD CALLDATALOAD SWAP4 POP POP POP JUMP JUMPDEST PUSH1 0x20 DUP2 MSTORE DUP2 MLOAD PUSH1 0x20 DUP3 ADD MSTORE PUSH1 0x0 PUSH1 0x20 DUP4 ADD MLOAD PUSH2 0x1D6F PUSH1 0x40 DUP5 ADD DUP3 PUSH1 0x1 PUSH1 0x1 PUSH1 0xA0 SHL SUB AND SWAP1 MSTORE JUMP JUMPDEST POP PUSH1 0x40 DUP4 ADD MLOAD PUSH1 0x1 PUSH1 0x1 PUSH1 0xA0 SHL SUB DUP2 AND PUSH1 0x60 DUP5 ADD MSTORE POP PUSH1 0x60 DUP4 ADD MLOAD PUSH1 0x1 PUSH1 0x1 PUSH1 0xA0 SHL SUB DUP2 AND PUSH1 0x80 DUP5 ADD MSTORE POP PUSH1 0x80 DUP4 ADD MLOAD PUSH1 0xA0 DUP4 ADD MSTORE PUSH1 0xA0 DUP4 ADD MLOAD PUSH1 0xC0 DUP4 ADD MSTORE PUSH1 0xC0 DUP4 ADD MLOAD PUSH2 0x1DC0 PUSH1 0xE0 DUP5 ADD DUP3 PUSH2 0x1C3B JUMP JUMPDEST POP PUSH1 0xE0 DUP4 ADD MLOAD PUSH2 0x160 PUSH2 0x100 DUP2 DUP2 DUP7 ADD MSTORE PUSH2 0x1DDF PUSH2 0x180 DUP7 ADD DUP5 PUSH2 0x1C5D JUMP JUMPDEST SWAP1 DUP7 ADD MLOAD PUSH2 0x120 DUP7 DUP2 ADD SWAP2 SWAP1 SWAP2 MSTORE DUP7 ADD MLOAD PUSH2 0x140 DUP1 DUP8 ADD SWAP2 SWAP1 SWAP2 MSTORE SWAP1 SWAP6 ADD MLOAD SWAP4 ADD SWAP3 SWAP1 SWAP3 MSTORE POP SWAP1 SWAP2 SWAP1 POP JUMP JUMPDEST PUSH4 0x4E487B71 PUSH1 0xE0 SHL PUSH1 0x0 MSTORE PUSH1 0x11 PUSH1 0x4 MSTORE PUSH1 0x24 PUSH1 0x0 REVERT JUMPDEST PUSH1 0x0 PUSH1 0x1 DUP3 ADD PUSH2 0x1E33 JUMPI PUSH2 0x1E33 PUSH2 0x1E0B JUMP JUMPDEST POP PUSH1 0x1 ADD SWAP1 JUMP JUMPDEST PUSH1 0x1 DUP2 DUP2 SHR SWAP1 DUP3 AND DUP1 PUSH2 0x1E4E JUMPI PUSH1 0x7F DUP3 AND SWAP2 POP JUMPDEST PUSH1 0x20 DUP3 LT DUP2 SUB PUSH2 0x1E6E JUMPI PUSH4 0x4E487B71 PUSH1 0xE0 SHL PUSH1 0x0 MSTORE PUSH1 0x22 PUSH1 0x4 MSTORE PUSH1 0x24 PUSH1 0x0 REVERT JUMPDEST POP SWAP2 SWAP1 POP JUMP JUMPDEST PUSH1 0x1F DUP3 GT ISZERO PUSH2 0x998 JUMPI PUSH1 0x0 DUP2 DUP2 MSTORE PUSH1 0x20 DUP2 KECCAK256 PUSH1 0x1F DUP6 ADD PUSH1 0x5 SHR DUP2 ADD PUSH1 0x20 DUP7 LT ISZERO PUSH2 0x1E9B JUMPI POP DUP1 JUMPDEST PUSH1 0x1F DUP6 ADD PUSH1 0x5 SHR DUP3 ADD SWAP2 POP JUMPDEST DUP2 DUP2 LT ISZERO PUSH2 0x1EBA JUMPI DUP3 DUP2 SSTORE PUSH1 0x1 ADD PUSH2 0x1EA7 JUMP JUMPDEST POP POP POP POP POP POP JUMP JUMPDEST DUP2 MLOAD PUSH8 0xFFFFFFFFFFFFFFFF DUP2 GT ISZERO PUSH2 0x1EDC JUMPI PUSH2 0x1EDC PUSH2 0x1A85 JUMP JUMPDEST PUSH2 0x1EF0 DUP2 PUSH2 0x1EEA DUP5 SLOAD PUSH2 0x1E3A JUMP JUMPDEST DUP5 PUSH2 0x1E74 JUMP JUMPDEST PUSH1 0x20 DUP1 PUSH1 0x1F DUP4 GT PUSH1 0x1 DUP2 EQ PUSH2 0x1F25 JUMPI PUSH1 0x0 DUP5 ISZERO PUSH2 0x1F0D JUMPI POP DUP6 DUP4 ADD MLOAD JUMPDEST PUSH1 0x0 NOT PUSH1 0x3 DUP7 SWAP1 SHL SHR NOT AND PUSH1 0x1 DUP6 SWAP1 SHL OR DUP6 SSTORE PUSH2 0x1EBA JUMP JUMPDEST PUSH1 0x0 DUP6 DUP2 MSTORE PUSH1 0x20 DUP2 KECCAK256 PUSH1 0x1F NOT DUP7 AND SWAP2 JUMPDEST DUP3 DUP2 LT ISZERO PUSH2 0x1F54 JUMPI DUP9 DUP7 ADD MLOAD DUP3 SSTORE SWAP5 DUP5 ADD SWAP5 PUSH1 0x1 SWAP1 SWAP2 ADD SWAP1 DUP5 ADD PUSH2 0x1F35 JUMP JUMPDEST POP DUP6 DUP3 LT ISZERO PUSH2 0x1F72 JUMPI DUP8 DUP6 ADD MLOAD PUSH1 0x0 NOT PUSH1 0x3 DUP9 SWAP1 SHL PUSH1 0xF8 AND SHR NOT AND DUP2 SSTORE JUMPDEST POP POP POP POP POP PUSH1 0x1 SWAP1 DUP2 SHL ADD SWAP1 SSTORE POP JUMP JUMPDEST PUSH1 0x20 DUP1 DUP3 MSTORE PUSH1 0x12 SWAP1 DUP3 ADD MSTORE PUSH18 0x11DA59C8191BD95CC81B9BDD08195E1A5CDD PUSH1 0x72 SHL PUSH1 0x40 DUP3 ADD MSTORE PUSH1 0x60 ADD SWAP1 JUMP JUMPDEST PUSH1 0x0 PUSH1 0x20 DUP3 DUP5 SUB SLT ISZERO PUSH2 0x1FC0 JUMPI PUSH1 0x0 DUP1 REVERT JUMPDEST POP MLOAD SWAP2 SWAP1 POP JUMP JUMPDEST DUP1 DUP3 MUL DUP2 ISZERO DUP3 DUP3 DIV DUP5 EQ OR PUSH2 0x467 JUMPI PUSH2 0x467 PUSH2 0x1E0B JUMP JUMPDEST PUSH1 0x0 DUP3 PUSH2 0x1FFB JUMPI PUSH4 0x4E487B71 PUSH1 0xE0 SHL PUSH1 0x0 MSTORE PUSH1 0x12 PUSH1 0x4 MSTORE PUSH1 0x24 PUSH1 0x0 REVERT JUMPDEST POP DIV SWAP1 JUMP JUMPDEST DUP2 DUP2 SUB DUP2 DUP2 GT ISZERO PUSH2 0x467 JUMPI PUSH2 0x467 PUSH2 0x1E0B JUMP JUMPDEST DUP1 DUP3 ADD DUP1 DUP3 GT ISZERO PUSH2 0x467 JUMPI PUSH2 0x467 PUSH2 0x1E0B JUMP INVALID SWAP12 PUSH24 0x9B17422D0DF92223018B32B4D1FA46E071723D6817E2486D STOP EXTCODESIZE 0xEC 0xC5 PUSH0 STOP LOG2 PUSH5 0x6970667358 0x22 SLT KECCAK256 DUP14 0xF 0xDE MLOAD 0x4B 0x2C PUSH20 0x65410B9901A5FBE2DADA05D69AE573C09F6B188D 0xB1 BALANCE 0xB1 DUP6 0xD0 PUSH5 0x736F6C6343 STOP ADDMOD EQ STOP CALLER "},"methodIdentifiers":{"ADMIN_ROLE()":"75b238fc","ARBITER_ROLE()":"4d104adf","DEFAULT_ADMIN_ROLE()":"a217fddf","approveWork(uint256)":"3d01e0fa","cancelGig(uint256)":"4bca9a88","clientGigs(address,uint256)":"96e7dfe6","createGig(address,address,uint256,uint256,string)":"03f8ed9f","feeCollector()":"c415b95c","freelancerGigs(address,uint256)":"fac210e9","fundGig(uint256)":"8de8616f","getClientGigs(address)":"40a7ea08","getFreelancerGigs(address)":"668c6cbb","getGig(uint256)":"b3479ed4","getRoleAdmin(bytes32)":"248a9ca3","gigs(uint256)":"5e3fbdc8","grantRole(bytes32,address)":"2f2ff15d","hasRole(bytes32,address)":"91d14854","platformFeePercent()":"8c639a85","raiseDispute(uint256)":"a5c1674e","renounceRole(bytes32,address)":"36568abe","resolveDispute(uint256,address)":"0e33599d","revokeRole(bytes32,address)":"d547741f","setFeeCollector(address)":"a42dce80","setPlatformFee(uint256)":"12e8e2c3","submitWork(uint256)":"c4c11523","supportsInterface(bytes4)":"01ffc9a7","totalFeesCollected()":"60c6d8ae"}}}}}